:020000040000FA
:06000000020A330201B305
:03002B00021E5F53
:030033000206853D
:030043000208B1FF
:03004B0002074F5A
:03005300020106A1
:03005B0002075E3B
:0300630002076A27
:03006B0002066B1F
:1000830002014F0101FF01010503010F10FEFF03F0
:100093000003000300030003000300030003000345
:1000A3000005000A00140028004F009E0000008C89
:1000B300138C138C138C13481242128C1384250057
:1000C300000000C024000000000C0000000C000130
:1000D30028EB04FFE0FF1F000102003211000000C3
:1000E300A51164000202000800000502071E0205B4
:1000F3001E020A03B80B02803E0103320002F1FF25
:10010300020206C0E074F21203C5E5A7F8E5A1F9FF
:100113005854106008121A6453A1EF802AE8A2E031
:10012300C0D0E9A2E092F012095A158182F050176B
:10013300906198E0F89014ABE0C398A2D265D033F5
:100143005002E8F053A1FE7F01020424C0E074F2E0
:100153001203C59061A4E0F8759B00E5915854081B
:1001630060087591F7121AA6802AE5915854106019
:10017300087591EF121AAC801BE8A2E0C0D0E5919C
:10018300A2E092F012095A158182F05007E0C2E012
:10019300F0121BCC9061A3E0F8E5E9585404600E1B
:1001A300121BA275E9FB906193E0A2E640F28097EF
:1001B300C0E074F21203C59061A5E0F8E5BF58549E
:1001C30004600653BFFB121BE402014AC3E498F820
:1001D300E499F91202108026C3E49AFAE49BFBE93E
:1001E30020E7E9120210E498F8E499F922C3E498AD
:1001F300F8E499F9120210E498F8E499F9C3E49A3F
:10020300FAE49BFB22EB20E7CFE920E7E0B90010FB
:10021300BB0008E88AF084F8AAF022E4FBC8FA22BB
:10022300EB70227B10C833C8C933C9335007C39A54
:10023300C3DBF280069A50012ADBEAC833F4C8C94B
:1002430033F4C9FA2275F008E4C833C8C933C93393
:10025300C99AC99B5004C92AC93BD5F0ECFBC833E2
:10026300F4C8E4C9FA22080808EAC0E0EBC0E08653
:10027300F0E7A4FA180986F0E7A42AFA180986F029
:10028300E7A42AFA180986F0E7A42AFA1986F0E700
:10029300A4FBE5F02AFA190886F0E7A42BFBE5F0A6
:1002A3003AFA190886F0E7A42BFBE5F03AFA181896
:1002B3000986F0E7A4C5F02BFBE43AFA1908E7C571
:1002C300F0C6A426F6E5F03BFBE43AFA1886F0E71D
:1002D300A4F6E5F00826F6E43B08F6E43A08F6D07F
:1002E300E0FBD0E0FA22E4CFC0E0E4CEC0E0E4CD0E
:1002F300C0E0E4CCC0E075F020C3E633F608E63393
:10030300F608E633F608E633F6181818EC33FCED76
:1003130033FDEE33FEEF33FFC3EC9709ED9709EEA0
:100323009709EF97191919400FFFEC97FC09ED97FF
:10033300FD09EE97FE191906D5F0BEECF709EDF7A6
:1003430009EEF709EFF7191919D0E0FCD0E0FDD059
:10035300E0FED0E0FF222518C582C0E0E51934FF96
:10036300C583C0E0E518C3958224F810AF088583E0
:10037300198582188008858319858218D2AFCEF03B
:10038300A3E520F0A37808E608F0A3DEFAEFF0A3D4
:10039300E58124FAF8E608F0A3E608F0A3E608F0FE
:1003A300A30808E608F0A3E608F0A315811581D099
:1003B300E0FED0E0F8158115811581E8C0E0EEC0BC
:1003C300E022C0D02518C582C0E0E51934FFC583FB
:1003D300C0E0E518C3958224F310AF08858319851F
:1003E30082188008858319858218D2AFC8F0A3E9E3
:1003F300F0A3EAF0A3EBF0A37908E709F0A3D8FA96
:10040300ECF0A3EDF0A3EEF0A3EFF0A3D0E0F0A3A4
:10041300D0E0F0A3D0E0F0A3E520F0A3E5F0F0A353
:1004230022851983851882E0C0E0A3E0F9A3E0FAEE
:10043300A3E0FBA37808E0F608A3DFFAE0FCA3E05F
:10044300FDA3E0FEA3E0FFA3E0C0E0A3E0C0E0A3C0
:10045300E0F5D0A3E0F520A3E0A3F5F010AF088505
:1004630083198582188008858319858218D2AFD0B5
:1004730082D083D0E0F8D0E032120A95B9000302AB
:1004830004BEE4900301782C79188002F0A3D8FC11
:10049300D9FA901A2CAA82AB8390008678817901CD
:1004A3008015E493A3AC82AD838A828B83F0A3AAE5
:1004B30082AB838C828D83D8E9D9E77582F6758305
:1004C300BD740312052075825A75831E74001205CC
:1004D30020D083D082ECC0E0EDC0E0E493A3FCE441
:1004E30093A3FDED4C600D1205F6EC24FFFCED34F7
:1004F300FFFD80EFE493A3FCE493A3FDED4C600DBB
:100503001206FAEC24FFFCED34FFFD80EFD0E0FD92
:10051300D0E0FCE493A3C0E0E493C0E022C0F0F594
:10052300F0E59F5407C0E0E59F54F845F0D0F0F59F
:100533009FE473859FF053F0F8D0E045F0F59F22D8
:10054300D083D082E59F5407C0E0E493C0E07401F8
:1005530093C0E07402935407C0F0F5F0E59F54F89C
:1005630045F0D0F0F59F22851983851882E0A3FE1C
:10057300E0A3F5207808E0A3F608DFFAE0A3FFE0A4
:10058300A3C0E0E0A3C0E0E0A3C0E0E0A3C0E0E0DC
:10059300A3C0E010AF08858218858319800885827F
:1005A30018858319D2AFD083D082020536D083D089
:1005B30082E9C0E0E493A3C386F0C5F095F0F9089F
:1005C300E493A386F0C5F095F0700BE493A3C3996D
:1005D3004005E9048002A3E475F002A42582F582B4
:1005E300E5F03583F583D0E0F9E493A3C0E0E49329
:1005F300C0E022C0E0C3E4939608740193961840C8
:100603000FE49366700808740193661870007019FC
:10061300A3A3C3E49396087401939618A3A3400D70
:10062300D0E0D0E0D0E0020510A3A3A3A3A3A3D0FE
:10063300E022D083D082C5F0E493A3C5F0C395F044
:10064300F5F0E493A3C395F04005E5F0048001E4DD
:1006530075F002A42582F582E5F03583F583E493F2
:10066300A3C0E0E493C0E022C0E074F21203C5E546
:1006730089A2E15003121956758900C2C57F010290
:100683000424C0E074F21203C5E58BA2E050031208
:100693001956758B00C2E880E474048004740280E8
:1006A30000CCC0E0EDC0E0E518C39CCCAD1950010F
:1006B3001D10AF068C188D1980068C188D19D2AFBA
:1006C300120798D0E0FDD0E0FC2274028000CCC079
:1006D300E0EDC0E0E518C39CCCAD1950011D10AF8F
:1006E300068C188D1980068C188D19D2AF120776D7
:1006F300D0E0FDD0E0FC22C0E0C0F088F0E49366D7
:1007030070080874019366187000A8F0A3A3700B17
:10071300D0F0D0E0D0E0D0E0020510A3A3D0F0D019
:10072300E022D083D082CCC0E0E493A3600612071A
:10073300D81470FAE493A360061208C81470FAD0B0
:10074300E0FCE493A3C0E0E493C0E022C0E074F2D1
:100753001203C51219B67F01020424C0E074F21219
:1007630003C51219BC80EFC0E074F21203C512195D
:10077300C280E3CAC0E0E493A3C582CCC582C5832B
:10078300CDC583F0A3C582CCC582C583CDC583DA2D
:10079300E5D0E0CA22CAC0E0E0A3C582CCC582C5C9
:1007A30083CDC583F0A3C582CCC582C583CDC58364
:1007B300DAE6D0E0CA227009080808226016181881
:1007C30018C6C333C608C633C608C633C608C633FD
:1007D300C6D5E0EA22C0E0E493A3D39C5010E4938F
:1007E300A3C39C400AD0E0D0E0D0E0020742A3A319
:1007F300A3D0E022C008C3E096F50808A3E0964220
:100803000808A3E096420808A3E09645087001D3C0
:10081300D008227404800A74038006740280027470
:1008230001C0E0F404120831D0E0120A7022251846
:10083300F58210AF08F518400215198008F5184025
:10084300021519D2AF85198322C0D0251810AF081D
:10085300F518500205198008F51850020519D2AF92
:10086300D0D022BB0102E722C082C08389828A835F
:10087300BB0003E08002E493D083D0822260160899
:100883000808C6C313C618C613C618C613C618C6A7
:1008930013C6D5E0EA22C3E0C696F608A3E0C696DF
:1008A300F608A3E0C696F608A3E0C696F622C0E0D3
:1008B30074F21203C5C2C0E5D1A2E450031219E6D3
:1008C3007F01020424C0E0E493A36C7009D0E0D05C
:1008D300E0D0E0020742A3A3D0E022251810AF081E
:1008E300F518400215198008F51840021519D2AF02
:1008F30022E066701008A3E066700A08A3E0667041
:100903000408A3E06622C3E09608A3E09608A3E0E8
:100913009608A3E096A2D265D03322C3E7960809CE
:10092300E7960809E7960809E796A2D265D033222D
:10093300C3E096F008A3E096F008A3E096F008A3BE
:10094300E096F022E026F008A3E036F008A3E036B4
:10095300F008A3E036F022C0E0E8C0E0E58124FC23
:10096300F8E6A2E7D0E0F8D0E022E647F60809E689
:1009730047F60809E647F60809E647F622E026F6B1
:1009830008A3E036F608A3E036F608A3E036F6221D
:10099300E627F60809E637F60809E637F60809E612
:1009A30037F622E657F60809E657F60809E657F63A
:1009B3000809E657F622E056F608A3E056F608A320
:1009C300E056F608A3E056F622E056F008A3E056F8
:1009D300F008A3E056F008A3E056F022700422606A
:1009E3000D18C6C333C608C633C6D5E0F41822E4CF
:1009F300C396F608E496F608E496F608E496F6221B
:100A0300C6F4C608C6F4C608C6F4C608C6F4C622A9
:100A1300C3E7960809E7960809E7960809E79622C7
:100A2300C3E09608A3E09608A3E09608A3E0962205
:100A330075D0007581407518017519030002047C97
:100A4300600C08C6C313C618C613C6D5E0F422E665
:100A5300F008A3E6F008A3E6F008A3E6F022E0F628
:100A630008A3E0F608A3E0F608A3E0F622CAC0E074
:100A7300E6F0A308DAFAD0E0FA22E0FAA3E0FBA357
:100A8300E0FCA3E0FD22EAF0A3EBF0A3ECF0A3ED7E
:100A9300F022E5C754F84401F5C77901222518F57A
:100AA30082E43519F58322120543B0DD02120543B2
:100AB300E5DD02120543B0DE021205437EDF0212BA
:100AC3000543D6E10212054342E302120543DEE386
:100AD30002120543B9E402120543D7E402120543A7
:100AE300A52700120543D82700120543F727001254
:100AF30005431928001205432B28001205434A28F1
:100B030000120543BB280012054355290012054373
:100B1300272A00120543732A00120543B22A001242
:100B23000543CF2A00120543192B00120543542B0A
:100B3300001205436F2B00120543932B001205434C
:100B4300CE2B001205430E2C001205432F2C00124E
:100B530005437C2C00120543562D00120543072E36
:100B630000120543972E00120543872F00120543F9
:100B7300CA2F00120543EF2F001205434530001220
:100B830005436A30001205438F31001205430332D7
:100B93000012054326320012054349320012054371
:100BA3007132001205438332001205438D32001265
:100BB30005431133001205438033001205432934E2
:100BC300001205433134001205439B3400120543E0
:100BD300DD3400120543ED3400120543D535001210
:100BE3000543603600120543C036001205438C37B7
:100BF3000012054303380012054340380012054331
:100C03009F3800120543EC3900120543083A0012DD
:100C130005436A3A00120543073B001205434E3B66
:100C230000120543E93B00120543963C00120543BD
:100C3300D43C00120543443D001205438F3D00128E
:100C43000543C83D00120543F83E001205434B40DF
:100C530000120543AC4000120543F5400012054362
:100C63001D4100120543A04100120543204200121A
:100C730005439A4200120543BF4200120543354320
:100C830000120543D943001205436F440012054384
:100C9300964400120543BB4500120543CE4500129E
:100CA30005436346001205438346001205432F475D
:100CB30000120543794700120543BB470012054361
:100CC300A74800120543AA4A00120543B44A00127A
:100CD3000543BE4A00120543C84A00120543D24ADF
:100CE30000120543EC4A00120543F64A001205437D
:100CF300004B001205430A4B001205432B4B001215
:100D03000543794B00120543834B00120543A74B60
:100D130000120543CB4B00120543284C0012054338
:100D2300734C00120543914C00120543014D001210
:100D330005433E4D00120543854D00120543ED4D1D
:100D430000120543914E001205435E500012054305
:100D5300815000120543535100120543795100128B
:100D63000543595200120543F154001205435356EB
:100D7300001205431A58001205436C58001205432C
:100D8300655900120543B259001205431D5A00125A
:100D93000543275A00120543E35B00120543125D26
:100DA30000120543725D00120543285E00120543DD
:100DB300105F00120543CD6000120543EC60001282
:100DC3000543486100120543206200120543456252
:100DD300001205439662001205437863001205432F
:100DE300B06300120543F06300120543536400121D
:100DF30005436F6500120543CF6500120543B566D1
:100E030000120543BD6800120543D968001205436B
:100E13007E6A00120543C46A00120543A26B0012E6
:100E23000543FC6B00120543446C00120543B46C8C
:100E330000120543426D00120543C66D00120543BF
:100E4300326E00120543588001120543AA80011235
:100E53000543E482011205433083011205430284F2
:100E630001120543718401120543B4850112054340
:100E73000188011205432889011205438F9101124C
:100E830005430C92011205438C9401120543789596
:100E93000112054324960112054355970112054398
:100EA3004898011205435F9B01120543619D01129E
:100EB3000543C19D01120543829E01120543AD9E68
:100EC300011205434E9F0112054332A0011205434F
:100ED3000DA101120543A1A101120543CEA10112E7
:100EE3000543F0A101120543E3A301120543C3A483
:100EF3000112054310A50112054371A50112054313
:100F030033A60112054368A601120543B6A60112D2
:100F13000543E6A60112054324A7011205437CA756
:100F23000112054381A701120543DCA70112054302
:100F330004A80112054323A9011205438FA9011235
:100F43000543F9A90112054385AA011205439CAD86
:100F53000112054368AE01120543D8AF01120543E0
:100F63002CB201120543D4B20112054389B3011215
:100F7300054317B501120543B4B501120543FCB58A
:100F83000112054398B701120543ACB7011205439B
:100F9300B9B701120543D4B701120543E0B70112F3
:100FA3000543FEB701120543C2B90112054321BA35
:100FB3000112054377BA0112054382BB01120543AF
:100FC300DEBB01120543D1BC0112054315BD01125D
:100FD300054398BD0112054399BE0112054357BF4E
:100FE30001120543F6C001120543CBC101120543AB
:100FF3006CC201120543FCC20112054313C3011263
:1010030005434CC30112054356C30112054362C392
:101013000112054380C301120543C4C301120543F2
:1010230015C40112054336C40112054350C401120D
:101033000543C8C40112054309C60112054353C63B
:101043000112054346C70112054362C70112054356
:10105300C5C7011205431AC801120543D8C80112B6
:101063000543E7C90112054393CA011205436ACB3D
:1010730001120543D6CB011205436ACC0112054385
:101083003ACD0112054369CD01120543C8CD0112C2
:10109300054376CE011205439CCE0112054314CFBE
:1010A3000112054339CF011205435CCF01120543F9
:1010B30097CF0112054375D10112054358D201128E
:1010C300054310D301120543A5D401120543F9D4F6
:1010D300011205433CD501120543ABD5011205436B
:1010E3001FD60112054378D6011205439ED601127D
:1010F3000543D9D60112054305D70112054350D73D
:1011030001120543A9D70112054325D8011205434E
:1011130003D90112054395DA0112054302DB0112DB
:1011230005432BDB0112054391DB01120543E8DB89
:101133000112054321DC0112054376DC011205434C
:101143009BDC01120543E1DC01120543FEDC0112C5
:101153000543A8DD0112054316D40312054361D4E8
:10116300031205436C8002120543A080021205435B
:101173007681021205434A820212054375830212E5
:101183000543F984021205437785021205433E861F
:10119300021205435F8702120543D18702120543FA
:1011A3003388021205438188021205438B88021299
:1011B3000543C98802120543328902120543D189C6
:1011C300021205434F8A02120543048B02120543A0
:1011D300768B021205439C8B02120543CC8B0212C1
:1011E3000543F98B021205439F8C02120543AF8C12
:1011F30002120543028D021205430E8D02120543AE
:101203001A8D02120543238D02120543848D0212A7
:101213000543E48D02120543358E02120543508EB9
:1012230002120543808E02120543A18E021205436A
:10123300AD8E02120543EE8F021205430C9002128B
:1012430005437590021205438890021205439F904F
:1012530002120543329102120543319202120543F1
:101263002D9302120543AF9302120543B993021261
:1012730005431C94021205432D94021205437094F6
:1012830002120543B79402120543ED94021205437B
:1012930023950212054341950212054365950212F7
:1012A3000543A69502120543999602120543DF965C
:1012B300021205431A970212054379970212054356
:1012C300A19702120543DA9702120543E897021227
:1012D3000543499802120543869802120543C898AC
:1012E30002120543F998021205432D990212054390
:1012F3003899021205435699021205431E9A0212A7
:101303000543289A021205436D9A02120543D79AA0
:1013130002120543EB9A02120543E39B02120543B3
:10132300F69B021205430B9C02120543AB9C02126F
:1013330005430F9D02120543D29D02120543DD9D15
:1013430002120543FC9E02120543189F0212054335
:10135300709F02120543A79F02120543C19F021209
:10136300054335A002120543C6A0021205430EA190
:101373000212054329A30212054393A30212054354
:10138300FEA30212054357A60212054367A60212E3
:1013930005436AA60212054376A6021205438AA6EE
:1013A3000212054392A602120543C7A60212054381
:1013B30075A702120543E5A70212054349A80212C5
:1013C3000543E2A8021205437CA902120543AAA918
:1013D3000212054340AA02120543C6D50212054371
:1013E30091AA02120543B8AA021205431EAB0212C8
:1013F300054388AC021205438BAC0212054302ADD0
:1014030002120543EEAD02120543C6AE02120543B6
:1014130050AF0212054385B00212054337B10212E1
:10142300054370B102120543A1B1021205437DDDEC
:101433000212054396B20212054312B30212054388
:10144300A2B3021205436CB402120543F0B40212B4
:10145300054326B5021205436FB502120543A5F6EF
:1014630001120543B3F6011205431CF701120543AC
:1014730054F701120543A7F70112054343F901127B
:10148300054323FB0112054302FE011205432EFE11
:10149300011205434EFE01120543ACFE0112054342
:1014A300EAFE0112054328FF011205436EFF0112F4
:1014B30005432BC90312054381C903120543E2C93E
:1014C300031205431ED3031205439FD3031205439F
:1014D300958F03120543DD8F031205434B900312CF
:1014E30005436E90031205430E91031205431791B2
:1014F300031205436491031205438D9103120543BF
:10150300ED9103120543839203120543B79203122D
:1015130005430493031205435E93031205438C931F
:10152300031205431494031205435994031205430C
:10153300989403120543CD9403120543DF940312D9
:101543000543F19403120543109503120543C79510
:1015530003120543079603120543CCCE031205433A
:101563003FC003120543A3C003120543C7C00312C0
:101573000543C0C103120543846E00120543636F24
:10158300001205439F6F001205433C71001205438F
:101593007E71001205433273001205437673001205
:1015A3000543577400120543E474001205436F7535
:1015B30000120543C5750012054305760012054365
:1015C300A77700120543307900120543477B0012C9
:1015D3000543557B00120543BA7B00120543937EF6
:1015E30000120543DAFF02120543F0FF021205431E
:1015F3006BD403120543A1B503120543B4B503121B
:10160300054352B6031205438DB603120543A8B62C
:1016130003120543CDB60312054312B70312054364
:1016230043B70312054374B703120543EBB8031220
:101633000543CACF0312054337D00312054353D0E2
:101643000312054395D003120543A5D003120543A6
:10165300AFD003120543B0A303120543CBA3031278
:101663000543E6A303120543EFA30312054300A4B6
:101673000312054312A4031205432FA403120543C7
:10168300C8A50312054349A603120543F6A6031290
:1016930005437AA703120543ABF302120543F6F39E
:1016A30002120543EDF402120543ACF502120543A1
:1016B300C1F5021205430BF6021205435AF6021254
:1016C30005436DF602120543B9F602120543CDF642
:1016D3000212054301F70212054319F802120543EA
:1016E3007CF8021205438BF802120543CCF8021270
:1016F300054300F90212054360F9021205437EF91E
:1017030002120543E1F90212054360FB021205438D
:1017130082FB02120543B7FB02120543E2FB0212EE
:101723000543F2FB02120543FEFB0212054301FCD3
:10173300021205434DFC02120543F2FC021205435B
:1017430017FD0212054321FD0212054331FD02126A
:101753000543A5FD02120543C0FD02120543E2FD48
:10176300021205431DFE021205432CFE021205431D
:1017730037FE02120543ACFF01120543C4FF0112F9
:1017830005433A88031205438988031205432D8ACA
:1017930003120543E38B031205432B8C031205430A
:1017A300298D03120543738E03120543958E03128D
:1017B3000543DF8E03120543618F03120543E2DD08
:1017C3000112054303DE0112054380DE01120543C6
:1017D30009DF0112054385DF01120543E8DF01122A
:1017E300054334E001120543A3E00112054333E14D
:1017F30001120543AAE101120543ECE1011205437D
:1018030099E50112054366E7011205430EE801124B
:1018130005434CE801120543DFE9011205434BEC94
:1018230001120543C5EC01120543BBED011205434B
:1018330024F10112054334F10112054394F201121C
:1018430005430FF30112054341F40112054352F519
:1018530001120543F2F5011205430EE50212054399
:10186300CDE50212054344E602120543EBE60212FC
:10187300054348E70212054322EA02120543DCEA64
:101883000212054341EB02120543E8EC0212054341
:101893009CED021205430CEE02120543AAEF02125D
:1018A3000543DCF00212054375F1021205436BF2A6
:1018B30002120543AFD203120543B9D20312054303
:1018C300CCD2031205432EC2031205437DC2031279
:1018D300054336C3031205439CC30312054367BE86
:1018E30003120543C0BE0312054300D2031205438E
:1018F3004CD203120543DCC503120543EAC50312A8
:10190300054384D50312054367D10312054377D1F9
:101913000312054395D103120543F6D10312054380
:10192300D47E00120543FB7E00120543807F001224
:101933000543D97F00120543DD9E03120543ADCB5A
:1019430003120543CFCB0312054339CC03120543DE
:1019530044CC0312054388CC031205438EC70312FC
:1019630005439CC703120543B4C703120543D9C7F4
:1019730003120543F6C70312054313C803120543B5
:1019830038C8031205436CC8031205433CB2031263
:1019930005434AB203120543C4B20312054390B38D
:1019A300031205433CB50312054382FE02120543AD
:1019B300BBFE02120543D8FE0212054336FF021294
:1019C30005439BFF021205433096031205439D9680
:1019D30003120543599703120543769803120543EF
:1019E300129A03120543769A03120543CB9A031204
:1019F3000543D49A03120543E39A03120543F99A64
:101A030003120543009F03120543539F031205432B
:101A13005BA1031205438DA103120543AFA103127A
:101A23000543C8A103120543E1A103120543E3A241
:101A33000312054371A3031205430DC403120543A7
:101A43003FC4031205434BC4031205437EC4031270
:101A53000543AFC403120543DDC40312054352C556
:101A63000312054381C50312054302B9031205435B
:101A730028B90312054365B90312054377B9031265
:101A8300054393B90312054301BA031205430ABA86
:101A93000312054369BA031205438DBA03120543C2
:101AA3004CBB0312054359BB031205436ABB031224
:101AB3000543AAD303120543F7D30312054314AF17
:101AC300031205435CB00312054369B003120543D7
:101AD3007CB0031205439BB003120543B1B003125C
:101AE3000543C5B0031205433FB103120543D5B106
:101AF300031205431DB2031205432DB2031205431E
:101B0300CED003120543F2D0031205431AD10312B8
:101B1300054342D10312054398BB03120543B1BBEE
:101B230003120543BDBB03120543D1BB0312054397
:101B3300EFBB03120543F9BB0312054303BC0312B6
:101B4300054316BC031205436ABC03120543A3BC39
:101B530003120543D2BC0312054320BD0312054300
:101B63006FBD031205438ABD0312054394BD0312DF
:101B73000543A5BD03120543EBBD03120543B6D4CC
:101B8300031205430080031205432C80031205430F
:101B93004880031205435B800312054371800312DF
:101BA3000543DD80031205431081031205436D8451
:101BB30003120543988503120543CB85031205439E
:101BC3003086031205431887031205434087031227
:101BD3000543558703120543658703120543A98708
:101BE30003120543FE87031205430E8803120543C0
:101BF3007ACA0312054395CA03120543BECA0312E8
:101C03000543D8CA03120543FDCA031205431CCB7F
:101C13000312054334CB0312054362CB031205437E
:101C23007CCB0312054344D5031205434EAB031289
:101C3300054355AB0312054361AC0312054391AC55
:101C430003120543B7AC03120543EAAC0312054381
:101C5300FCAC0312054336AD031205439CAD0312DE
:101C63000543D5AD0312054321AE031205434EAE22
:101C7300031205436EAE03120543BFCC03120543A3
:101C8300D7CC03120543C9CD03120543CCCD0312B0
:101C930005432BCE0312054369CE03120543AACE97
:101CA30003120543029B03120543219B03120543C1
:101CB3006C9B03120543889B03120543C09B0312CD
:101CC3000543CD9B03120543EA9B03120543CD9CB9
:101CD30003120543049D031205430B9E03120543A0
:101CE300169E03120543289E03120543319E0312D9
:101CF30005433B9E03120543C6A70312054340ABAE
:101D030003120543FED403120543A29E03120543A7
:101D13006AD402120543BED30212054305D202124E
:101D2300054315D002120543A6CF021205434BCF3C
:101D330002120543D8CE02120543AECE021205436A
:101D43009CCC0212054374CC0212054319CC021237
:101D53000543F6CB0212054325CB02120543CDCA38
:101D63000212054337C90212054334C9021205435F
:101D730034C80212054314C80212054364C7021291
:101D83000543E6C502120543ADC5021205437EC5F0
:101D9300021205435EDD02120543F6DC021205431F
:101DA300A5DC02120543E9DB021205435BDB0212E9
:101DB30005437BC5021205436DC50212054359C590
:101DC300021205434EDB0212054346C502120543C8
:101DD30048C402120543D8C3021205439EC302122C
:101DE3000543AAB10212054321D80212054346C393
:101DF3000212054315C3021205432DC00212054307
:101E0300EBBF02120543DFBF0212054352BF0212AA
:101E13000543A0BE021205433FBC02120543A9B904
:101E23000212054373B90212054307B802120543B0
:101E3300B3B702120543F7B602120543CAB602123C
:101E430005431CB602120543EFB502120543B5B5AF
:101E5300021205436FAA0200000080FBC2C732E4EE
:101E630073000000000000000000000000000000FC
:101E73000010101010101000003030000000142863
:101E830050000000000000000000000000002828AF
:101E9300FC284850FC5050000000001038545430C7
:101EA3001814545438100000000044A8A8B0541A61
:101EB3002A2A44000000000020505060ACA89892E9
:101EC3007C000000606020C00000000000000000F3
:101ED3000000040808101010101010080804000077
:101EE30000402010080408102040000000000000FB
:101EF3001010D63838D61010000000000000101063
:101F030010FE101010000000000000000000000090
:101F1300000000606020C0000000000000FC000022
:101F2300000000000000000000000000000000604E
:101F33006000000002040404080810102020204060
:101F4300000000003048848484848448300000000A
:101F5300000010701010101010107C000000000022
:101F630038444404081020447C0000000000384436
:101F730044180404444438000000000808182848A2
:101F830048887C081C00000000007C404078440422
:101F930044443800000000003C4480B8C484848476
:101FA3007800000000007C44480810101010100056
:101FB30000000000788484487884848478000000DA
:101FC3000000788484848C740488F000000000008E
:101FD300000030300000003030000000000000003E
:101FE3000010000000001010200000040810204022
:101FF300201008040000000000000000FC0000FCAA
:1020030000000000000000402010080408102040D9
:102013000000000000788484840810100030300031
:102023000000000038449AAAAAAAB4423C00000067
:1020330000001010282828384444EE000000000057
:10204300F844447844444444F800000000003C440D
:10205300848080808044380000000000F0484444BD
:1020630044444448F00000000000FC4440487848E1
:102073004044FC0000000000FC42404878484040D7
:10208300E000000000003C448480808E84443800DB
:1020930000000000EE4444447C444444EE0000004D
:1020A30000007C101010101010107C0000000000C5
:1020B3007C101010101010101090E0000000EE447F
:1020C300485070484844EE0000000000E0404040A3
:1020D30040404044FC0000000000EE6C6C6C545423
:1020E3005454D60000000000EE64645454544C4C25
:1020F300E400000000003048848484848448300075
:1021030000000000F844444478404040E0000000F0
:102113000000304884848484B448380C00000000F4
:10212300F844447850484844E600000000003C442A
:10213300402018040444780000000000FE921010B0
:1021430010101010380000000000EE4444444444D2
:102153004444380000000000EE4444282828281096
:10216300100000000000D6545454546C2828280052
:1021730000000000EE44282810282844EE00000048
:102183000000EE4428281010101038000000000052
:102193007C88081020204044FC0000001C10101014
:1021A300101010101010101C0000701010101010E0
:1021B300101010101070000070101010101010107C
:1021C3001010107000001028000000000000000034
:1021D30000000000000000000000000000000000FC
:1021E300FE00606020C0000000000000000000004E
:1021F300000000000038441C24443E00000000009E
:10220300C04040784444444478000000000000008B
:10221300003C444040443800000000000C04043CEF
:10222300444444443E000000000000000038447C65
:1022330040443800000000001C2420F82020202007
:102243007800000000000000003C4848304078441B
:1022530038000000C040405864444444EE0000008D
:10226300000010000070101010107C00000000002F
:102273000800003808080808080870000000C0407B
:10228300405C48507048EC000000000070101010D3
:10229300101010107C0000000000000000F85454DF
:1022A3005454D60000000000000000D864444444A5
:1022B300EE000000000000000038444444443800AD
:1022C30000000000000000F8444444447840E0006B
:1022D30000000000003C444444443C040E00000061
:1022E300000000EC30202020F80000000000000077
:1022F300003C443008447800000000000010107CCB
:10230300101010100C0000000000000000CC44442A
:1023130044443E0000000000000000EE442828284A
:10232300100000000000000000D654545428280078
:1023330000000000000000DC48303048EC000000E2
:102343000000000000EE442828101020E0000000E8
:102353000000007C481010247C00001010101010A6
:10236300101010101010101010000136360101006B
:102373000102010001030100010401060605020038
:1023830000070100340801000F090401010D0100D9
:10239300FF0E08000017020000190100FF1A0100D8
:1023A300011B0100FE1C0100081D0200001F0100AB
:1023B3000120010001210200002301000F2402007B
:1023C300002601000127010008280200FF2A01005E
:1023D300072B0102402C0100002D0100012E0100FA
:1023E300012F0100FF30010B1C310800003A0100EE
:1023F300083B01000F2F010000030271023001604E
:102403000211027002010202020202800210026142
:10241300023A004100630273027202620243020045
:10242300021302380000020002040212020002003A
:10243300020002000204020402370037003C024497
:102443000200023900000200026502000235028127
:1024530002000205028202830200020101710101EE
:10246300010101110101013101010101018001108B
:102473000161013B001400630173017201620143B6
:10248300010001130106013D0135000401120100A1
:102493000100010001000104010401330133013C87
:1024A30001440132013600000100016501000135DC
:1024B3000081010001050182018301000101037113
:1024C30003010301030103010301032203020301C7
:1024D30003100300030003000300030003000300D1
:1024E300034203000324030603000300030403124F
:1024F3000325032303250323030403040300030029
:1025030003000344030003000323030003650321C3
:1025130000350381030003050300030003000303E5
:10252300047104020460041104700402040204012F
:1025330004020410046104000414046304730472A9
:1025430004620443040004130406040004000404A6
:102553000412040004000400040004510464000095
:10256300040004000444040004000400040004659F
:10257300040004350481046400050400048304009A
:10258300040300710030016000110070003102206B
:102593000350048000100061000000140063007306
:1025A30000720062004300000013000600000000F8
:1025B30000040012000000000000000000040004FA
:1025C30000370037003C0244000000000000000018
:1025D3000065000000350081000000050000008355
:1025E30000000036000100060000000F000000009C
:1025F30000000000000000000003FFFF00000403D0
:10260300FFFF0000FFFF0FF4010005C404032000D7
:102613000100000B000000000000000003010F0098
:1026230000721813001218010072180200DC17035D
:1026330000E2170400E8170500EE170600FA17FF7B
:10264300FF000001820E06B20E08AC0E0BBE0E1088
:102653000A0E02880E05A00E078E0E0C6A0E0D766A
:102663000EFF0000030003000400080010001F0019
:102673003E007B00F600EC01D703AF075D0FB91EE8
:10268300713D0000A212D212A812AE12CC12C012D7
:10269300BA12D812DE12E412F012B4129C1296127D
:1026A30003EAF5E5D5D5C5B5A59595858575756514
:1026B3006555554545353525251515059C36063A89
:1026C300703DD9404344AD47174B814EEA51001644
:1026D3000F00000B150B020002220F320000060050
:1026E3000102030405060708090A0B0C0D0E0F8CE3
:1026F300139E13A4136C12AA1366127212A611A0CE
:1027030011DC11E211D6118E11FE131C14221404D4
:102713001410140A140C0E020B040B0A0708000F02
:1027230000034948424D18172505020001191618E0
:10273300161615230300303017181921301B1D1FDF
:102743003000383C3E363B3B352B432C303016189B
:102753001920231A1C1E30F213B013B613C213BC74
:1027630013C612EA121614F612FC12B211B811AC07
:1027730011E8110005150D09100804000000000000
:1027830000BE11D01100BE040A0E001500040001A2
:102793000309280C05100C0A090004000C040F108F
:1027A300080874F612035974FF1208DEE4851882D0
:1027B300851983F0858208858309780812081E75B8
:1027C3000801750900780812081E123FFA12084C16
:1027D300740102472774F61203598C088D0978088F
:1027E30012081E75080B750900780812081E123F9F
:1027F300FA02472774F61203598C088D09780812D8
:10280300081E75080B750900780812081E1240058A
:10281300123EF0024727C082C0838A828B83E0D2B4
:10282300E7F0121746024772C082C0837900125143
:1028330024900332125955C3EA9CEB9D5006122F84
:10284300AF60010902477274F7120359EA12580B79
:10285300EB125BAE122AA8AEF075F00BEDA42EFDC1
:10286300900334E02CFEA3E03DFFEA2403FCEB34A9
:1028730000FD740169600574026970278A828B8385
:10288300A312512E8E828F83A3124469740269703E
:102893001DECFAEDFB120B34E97013E48E828F8387
:1028A300F0800BEE2403FAEF3400FB120B2EEEFA4A
:1028B300EFFB120AF2023A6574F21203598A088B8B
:1028C30009EA240BF50CEB125E1379008A828B83E1
:1028D300E0606F890A890B805EE50A75F00BA4FA44
:1028E300ACF075F00BE50B122D417048AE82AF834F
:1028F30085088285098312688C122DFBA3125BB4B1
:102903001246F7E5082403FCE5093400FDEE240331
:102913000A0A0AEF3400FB120B2E850C82850D8305
:10292300E50AF0A3E50B124C6D120AF2790190034C
:10293300321260B6122948122D39E50A9AE50B9B2B
:1029430040970243D4E50A2401F50AE50B3400F568
:102953000B2274F1120359EAFEEBFF740F120AA063
:10296300123FF2750E01850882F583A385820C85DB
:10297300830DEE240BF8EF3400F9EC7001ED6030B9
:10298300EC12580BED12445F7901EEFAEFFB120AD9
:10299300FEE5087002E5097003022A20850C828592
:1029A3000D83125E187902AA08AB09120AFE806D24
:1029B300EE2403F50AEF122950E5087002E50960D9
:1029C30033125809E50912445FE5082403FAE509BF
:1029D3003400122D31700CEEFAEFFB120B04E9F503
:1029E3000E80B9AA0AAB0B122D3270317903EEFABD
:1029F300EFFB80B78E828F83A3E064FE7004A3E0B5
:102A030064FF700A0A0A0AAB0B122D32700CEEFA3D
:102A1300EFFB120B04E9F50E8003750E00A90E7F80
:102A23000702056A74F7120359900332124469EAE4
:102A33007001EB6031EA75F00BA4FAACF075F00BA2
:102A4300EBA42CFBEAFEEBFF12156C90033412444B
:102A530069900334E07002A3E06012EEFCEFFD79AD
:102A6300001214DC8007900334E4F0A3F0023A650B
:102A730074F6120359750800750900780812081EC8
:102A8300900332122AA8AAF075F00BEDA42AFD7A5E
:102A9300237B001215D2740212084CE9FE60031264
:102AA3000B1C023D80125BDDEC75F00BA4FC227461
:102AB300F71203597E007F00800AEEFAEFFB120A39
:102AC300E0123C6B122B0D40F1023A6574F71203CE
:102AD300597E007F008016EEF8EFF9122AF8FCA366
:102AE300E039FDEEFAEFFB120AEC123C6B122B0DF0
:102AF30040E5023A65E875F00BA4F8AAF075F00B0F
:102B0300E9A42AF9900334E02822900332124AA65A
:102B1300C3EE98EF992274F71203597E007F008069
:102B230028EEF8EFF9E875F00BA4F8AAF075F00BAE
:102B3300E9122DF6A2E7500EC2E7F0AC82AD83EEA8
:102B4300FAEFFB120AE6123C6B122B0D40D3023A4A
:102B530065C082C083EC7001ED6005121C9E800984
:102B63007C087D0079001214DC02477274F61203AC
:102B7300597900EA7001EB60147C008C08126367DA
:102B8300600479017C080CECC3940840EE02472AE8
:102B930074F712035974F31208DEECFEEDFFE485BB
:102BA3001882851983F07401120AA0124043120B94
:102BB300527403120AA0AC82AD83EEFAEFFB120B40
:102BC3002EEEFAEFFB120B34023A6074F71203593C
:102BD30074F31208DEECFEEDFFE485188285198399
:102BE300F0EAFCEBFD7403120AA0124078740112A0
:102BF3000AA0125BB41246F874FE68700374FF698E
:102C03006004790180027900023A6074F712035973
:102C1300EAFEEBFF122C5C7010122C6764FFFC8A37
:102C2300828B83E05CF0120AF202433074F71203E2
:102C330059EAFEEBFF7508008E828F83E06017125E
:102C43002C5C7012122C67FC8A828B83E05C70060A
:102C5300E04CF0120AF2024330120AF8E9F5087464
:102C630001650822EE124635124AA6122AF8FAA383
:102C7300E039FB8E828F83E02274F01203598A08B5
:102C83008B09EA2403FEEB3400FF7C007D000A0A73
:102C93000AFB120B2EE508240BF50CE509125E1353
:102CA3007900850882850983A385820A85830BE0E1
:102CB30064FE7004A3E064FF606589088909805499
:102CC300E50875F00BA4FAACF075F00BE509122DCD
:102CD30041603E850A82850B83126A6BA3E06C70A8
:102CE30003A3E06D702BEA2403F50EEB3400F50F1C
:102CF300122D2E700BAC0EAD0FEEFAEFFB120B2E56
:102D0300850C82850D83125CE87901900332123FB2
:102D1300F21246FE122D39E5089AE5099B40A1807F
:102D230005740D12084C7F0802056A0A0A0AFB1291
:102D33000B34E9640122900332125138C322A42CCC
:102D4300FB900334E02AFAA3E03BFB8A828B83E007
:102D5300540F2274EF1203598A828B83A385820E48
:102D630085830F125E18EA240BF508EB12470685DC
:102D73000882125E16751000EA2403F50CEB34008A
:102D8300F50D122D2E7065750A00750B008055E543
:102D93000A75F00BA4F8AAF075F00BE50B122DF6EB
:102DA300540F603DAE82AF83EE2403FCEF3400FD8D
:102DB300AA0CAB0D121C98E9640170258E828F83D7
:102DC300A3124645850E82850F83E8F0A3E9122DF1
:102DD300FBE50AF0A3E50BF07510019003321260D6
:102DE300B6122948900332123EE340A3A9107F098B
:102DF30002056A122E85E022122DFF22F085088239
:102E03008509832274F3120359EAFEEBFF8E828F46
:102E130083A385820A85830B125E18EE2403F508CB
:102E2300EF1247067C007D000A0A0AFB120B2EEE06
:102E3300FAEFFB120AF8E9F50C7401650C703EEE2B
:102E430012580BEF122E8F75F00BA4F8AAF075F041
:102E53000BE9122E85A312512E850A82850B83124C
:102E63004469E82403FEE93400FFEEFAEF122D3142
:102E7300700BEEFCEFFDAA08AB09120B2EA90C0296
:102E83003B02122B04F8A3E03902503F12463A12D8
:102E93004AA6E82274EE12035974E61208DEEAFE2B
:102EA300EBFFEE240BF50AEF122950850A82125E1E
:102EB30016750E017508007509007510007511006F
:102EC300E4851882851983F0EE2403FCEF3400FDBA
:102ED3007403120AA0AA82AB83120B2E8E828F83F5
:102EE300A385820C85830D851882851983AA82ABFD
:102EF30083120B58E964017034740B120AA0124652
:102F030045850A82850B831246F87401120AA012C2
:102F13004645850C82850D83E0687003A3E06960F4
:102F230055851882851983858208858309740D1256
:102F33000AA0E4125CD9F8A3E0F9740E120AA012F5
:102F430046F8740D120AA0AA82AB83120B52E964ED
:102F530001700B740D120AA08582108583117810FD
:102F630012081EAC08AD09EEFAEFFB120B0A74024D
:102F730012084CE9F50EEEFAEFFB120B4CA90E7496
:102F83001A0259AAC082C0837800790080031238DC
:102F930096122D39E89AE99B500DE8FAE9FB122FB6
:102FA300AF70EB790080027901024772EA75F00B8A
:102FB300A4FAACF075F00BEBA42CFB900334126B6A
:102FC300F3F583E0540F22C082C08390278E123A18
:102FD30000EC75F012A4FCAAF075F012EDA42AFD22
:102FE30079FF7AD57B141214DC02477274F612034C
:102FF300597E007F007C007D0080348C088D09E5BC
:103003000875F012A4F508ABF075F012E509A42BCE
:10301300F509E50824D9F582E5093414F583E0FBC5
:10302300C3994008EAC39B4003123C6B12369112CA
:1030330034CCC3EC9508ED950940C0EEFAEFFB02E2
:10304300472AC082C08378007900800312389690A3
:10305300278E123BE0500912340D64FF70EE80049A
:103063007A007B0002477274F012035974F312085A
:10307300DE8A0A8B0BECFEEDFF890CEE7001EF602C
:1030830011EEFAEFFB120BA68A088B09EA7001EB2B
:103093007050120B7C8A088B09EA7001EB60437451
:1030A30001851882851983F0120AA0E50AF0A3E5C9
:1030B3000BF0EEFCEFFD7403120AA01231FC740B4B
:1030C300120AA01246451246F0E485088285098358
:1030D300A3A3A3A3A3A3125BD5AA0AAB0B1210E667
:1030E300800BE5087002E50970030231747A00E58C
:1030F3000C6007C3940550027A048508828509830E
:10310300125D07A3A3A3E50CF0EA85088285098372
:10311300A3A3A3A3A3F07402850882850983A3A3B1
:10312300A3A3A3A3A3A3F07401850882850983A3A2
:10313300A3A3A3A3A3A3A3123188A3A3A3F0E50886
:103143002410F582E509125BAEE4F0123188F01227
:103153005809E509125BAEE4F0908035780C120A49
:1031630061E508240CF582E509125BAE780C120ABE
:103173005212336E4005E4901A30F0120FC0AA08C1
:10318300AB09022D24A3124654025BC774F2120347
:103193005974F31208DE8A088B09ECFEEDFF750AF9
:1031A30000EEFAEFFB120BA68A0C8B0DA80CA90DEF
:1031B300E87001E9603E88828983E065087004A3B2
:1031C300E06509602F88828983A3A3A3A3E0C39446
:1031D300055021125CE47401851882851983F0126D
:1031E3000AA0125CE8EEFCEFFD7403120AA0123190
:1031F300FC750A01A90A0243CF12407F120B642215
:1032030074F61203591232677002E5836010A3A3A8
:10321300A3A3E06009C394055004790180027900F7
:1032230002472A74F61203591232677002E583606B
:1032330010A3A3A3A3E06009C394035004790180FE
:1032430002790002472A74F6120359123267700298
:10325300E583600BA3A3A3A3E07004790180027943
:103263000002472A120BA08A828B83E58222C08246
:10327300C083EAFCEBFD7A007B00120BAC024772C1
:10328300C082C0837C007D0080F074F21203597405
:10329300F31208DE8A0C8B0D8C0A8D0B7E007F00E7
:1032A300802112377B120AA01233056013740312B4
:1032B3000AA0AC82AD83AA0CAB0D121C98E9703541
:1032C300123C6B90278E123C7B503012364560F0D7
:1032D300E50C7002E50D70CA74FF650A700474FF93
:1032E300650B60DC850882850983E0650A7004A3A9
:1032F300E0650B70CBAA08AB0980047A007B00025F
:1033030043CFE8F0A3E91240A3120B5EE92274F461
:1033130012035974F31208DE750800120BA68A0A09
:103323008B0BAE0AAF0BEE7001EF602A74018518A8
:103333008285198312467DF8A3E0F9740B120AA063
:1033430012409B120B467C127D0079FFEEFAEFFBD5
:103353001214DC75080112336E50097401901A308F
:10336300F0120FC0A908740D0247B37A0479001252
:103373000B7690278E123C81EA98EB992274F71210
:103383000359E9FE74FE6A700374FF6B78007900D9
:103393007005804D12389690278E1238895042E876
:1033A300FCE9FDEC75F012A4FCAFF075F012EDA48E
:1033B3002FFDEC24D5FCED3414FD8C828D83A3A367
:1033C300A3A3E064FF60CD8C828D83E06A7003A3C6
:1033D300E06B70C08008EC6005C39405401C123894
:1033E3009690278E123BE0501A12340DFCEE70E6D5
:1033F30074016C600574036C70E48A828B831251D0
:103403002E80047AFE7BFF023A65E8FAE9FBEA754F
:10341300F012A4FAACF075F012EBA42C1236B02221
:10342300120BB8024772C082C083790180F274F034
:103433001203598A0A8B0B7A047901120B768A0CD0
:10344300EA7001EB6040EAC333FAEB33FB12156C0D
:103453008A088B09AE08AF09EE7001EF60237AFE8C
:103463007BFF120BBE74FE6A700374FF6B601B85D7
:103473000882850983124469E50824021247028001
:10348300E1750C0080047E007F00850A82850B8332
:10349300E50C124C6D022D2974F6120359750800C0
:1034A300750900780812081E1234CC7403780812C8
:1034B30009DF1236397B001215D2740212084CE967
:1034C300FE6003120BD0023D8090278E1234D3226C
:1034D300E493F508740193F5092274F61203597401
:1034E300FE1208DE123DB302470B74F41203597443
:1034F300DF1208DE7E0085188285198385820885A0
:103503008309780812081E7508028E0978081208C4
:103513001E7C007D00123EEE12084CE9600302356A
:10352300C31235CA12463FC3EA98EB9950030235DA
:10353300C38077740F120AA08582088583097808EF
:1035430012081E750808750900780812081E74030E
:10355300780A1209DF7402250AFCE4350BFD123EDA
:10356300EE12084CE970427402120AA07401F0745E
:1035730011120AA0124645740D120AA01246F874DD
:1035830002120AA0AA82AB83120B5EE9601B7413BA
:10359300120AA0E0F97405120AA0AC82AD83740F7D
:1035A300120AA012512E120B820E8E8285820A7588
:1035B3000B0012463FC3E50A98E4995003023536DF
:1035C300EEF974210247B390278EE493FA740193C2
:1035D300FB2274F612035974FE1208DE85188285E5
:1035E3001983E4F0A3F0FE8033123645602B78088C
:1035F30012081E750808750900780812081E74045D
:10360300120AA0123FF2740378081209DF12363946
:10361300123FFD12084C123FE2123C70FF90278EBE
:10362300123C7B40C4851882851983858208858373
:1036330009780802470B74022508FCE43509FD7A72
:103643002222EEF8EFF9E875F012A4F8AAF075F06B
:1036530012E9123760A3A3A3A3E064FF2274F71255
:1036630003597C007D00800419123691123688506C
:103673000D12369AC3940550F0E970EC80047A0079
:103683007B00023A651235CAC3EC9AED9B22EC2407
:10369300010CED3400FD22ECFAEDFBEA75F012A407
:1036A300FAAEF075F012EBA42E1236B022FBEA2428
:1036B300D5FAEB3414FB8A828B8302656474F312AC
:1036C300035974F31208DE750A00750B008052E586
:1036D3000C125B9B8E828F83125D60E0687003A384
:1036E300E06960257401120AA0E0687003A3E06931
:1036F3006017EE2402FCEF3400FD7403120AA0AA43
:1037030082AB83121C98E96007EEFAEFFB1210F20A
:10371300050C902798E493FAE50CC39A40B112295B
:1037230048123773E50A98E50B99502CE50A75F0B2
:1037330012A4F8AAF075F012E50B123760E064FFEB
:103743007004A3E064FF60D612377B120AA0123321
:103753000560CB750C0080BA740D023AFFA42AF9F8
:10376300E824D5F508E93414F509850882F58322A0
:1037730090278EE4123C8222740185188285198376
:10378300124654124AA6740B2274F6120359123DC0
:1037930085123A00EC8508F0A4CCAAF08509F0A4C0
:1037A3002AFA8508F0EDA42AFD79FF7AEC7B191239
:1037B30014DC9003377400F0A3740CF09003397495
:1037C300FAF0A3740BF090033B7424F0A3740CF091
:1037D30090033D7436F0A3740CF090033F743CF0F7
:1037E300A3740CF09003417442F0A3740CF09003A3
:1037F300437448F0A3740CF0E4900336F002472AB4
:10380300C082C083780079008003123896123BDDB2
:103813005024E8FAE9FBEA75F00EA4FAACF075F06F
:103823000EEBA42CFBEA24ECF582EB12429270DA45
:10383300AA82AB8380047A007B0002477274F7127A
:1038430003597A007B0078007900802FE8FCE9FDBA
:10385300EC75F00EA4FCAEF075F00EEDA42EFDECAD
:1038630024ECF582ED124292600EA3A3A3A3A3E07E
:10387300FCEA2CFAEB3400FB1238969027901238AE
:103883008940C9023A65E493FC740193FDC3E89C43
:10389300E99D22E8240108E93400F92274EC1203BB
:1038A3005989108A088B098C0D8D0C7414120AA087
:1038B3001260B67E007F00120C60AA08AB09120CDE
:1038C300668A0E8B0F850882850983A3A3A3A3A30E
:1038D300A3A3A3E0640170077508018E0980058E18
:1038E30008850D0974FE650E700474FF650F70037F
:1038F3000239E38E0D8002050D850D12902790127B
:1039030068AD5071E50D75F00EA424ECFEE5F012E0
:103913003D3E651070E1A3E0650870DB8E828F8306
:10392300A3A3E0650E7004A3E0650F70CA8E828FB7
:1039330083A3A3A3A3E0650970BD750D00E50DC3C3
:10394300950C40030239E3E50DC333F8E433F9E59D
:103953000A28F508E50B39F5098508821266AD12C8
:103963000C0CE9700C8508828509831266AF120C72
:1039730018050D80C8120BF48A128B13AE12AF1305
:10398300EE7001EF605A8E828F83E510F0A3E50895
:103993001246E1A3E50EF0A3E50F1246E1A3A3A3AC
:1039A300E509F09027A0E493C3950C5004E493F544
:1039B3000C8E828F83A3A3A3A3A3E50CF0850A082F
:1039C300850B09750A00780812081AE50CC333FC45
:1039D300E433FDEE2406FAEF3400125D0012084CC6
:1039E300EEFAEFFB7F0C02056AC082C0831239FD39
:1039F30079FF1214DC790102477290278CE493FC5F
:103A0300740193FD2274F7120359EA7001EB6049C4
:103A13008A828B83A3A3A3A3A3A3E5827002E58376
:103A230060377E0080010E8A828B83A3A3A3A3A3A6
:103A3300E0FFEEC39F5022EEC333F8E433F9EA28E4
:103A4300F582EB39F583A3A3A3A3A3A3E06C7003CF
:103A5300A3E06D70D17901800279008005740D12A5
:103A6300084C7F0102056A74F3120359EA2405F82E
:103A7300EB3400F9E8FEE9FFEA7001EB606F8E8238
:103A83008F83E06073EA240608EB3400F9E0F50B5A
:103A9300750A00800B8E828F83E014F0605A050A4A
:103AA300E50AC3950B5046E50AC333F508E433F53D
:103AB30009EA2508F508EB3509F50974062508F523
:103AC30008E43509F509850882F583E06C7003A3E2
:103AD300E06D60C1850882850983E0F508A3E012E3
:103AE3005CE2E824020808E93400F980B18E828F91
:103AF30083E06004790180027900800312084C7F1F
:103B03000502056A74F7120359EA7001EB60371274
:103B13006A59C0E09027A0E493FED0E0C39E5026EC
:103B230088828983E0C333FEE433FFEA2EF582EB18
:103B33003FF583A3A3A3A3A3A3ECF0A3ED12656AAC
:103B430004F0790180027900023A6574F212035994
:103B530089088C09123C8A70051260B28003123CFA
:103B63006374FE650A700474FF650B70067A007B4C
:103B73000080647800790080187401650C700F8CE4
:103B8300828D83E0650A7004A3E0650B60491238F7
:103B930096123BDD50D71240278A828B83E065085B
:103BA30070ECA3E0F50CEA2402FCEB3400FD8E82FA
:103BB3008F83E0640160C2E50C70D38C828D83E057
:103BC300650A7004A3E0650B70C48A828B83A3A388
:103BD300A3A3E0650970B70243D49027901235CDB3
:103BE300C3E89AE99B2274F2120359EA2408F8EB1A
:103BF300124674640170051260B28003123C637450
:103C0300FE650A700474FF650B60527E007F0080BE
:103C130047EEF8EFF9E875F00EA4F8AAF075F00E88
:103C2300E9A42AF9E824ECFAE93419FB850882852A
:103C33000983E06401701B8A828B83A3E0640170B3
:103C4300148A828B83A3A3E0650A7004A3E0650B47
:103C53007003120C06123C6B123C7840B40243D43E
:103C6300120C4E8A0A8B0B22123C70FF22EE2401A7
:103C73000EEF340022902790123C81022B14E49320
:103C8300F8740193F9C322EA2408F8EB125DFFE00C
:103C930064012274F3120359890C8A0A8B0B750889
:103CA300007509007E007F00801B123FBF650C700A
:103CB30011AC0AAD0BAA82AB83120C0CE9600312A0
:103CC30046FE123C6B123C7840E0AA08AB09023B6B
:103CD3000274F1120359890D8A0A8B0B8C0E750C31
:103CE300007508007509008005050C1246FE902733
:103CF30090123776E50898E509995038E50875F08C
:103D03000EA4F8AAF075F00EE509A42AF9E824EC4C
:103D1300FEE9123D3E650D70D2AC0AAD0BEEFAEF33
:103D2300FB120C0CE960C4E50CC3950E40BBEEFA24
:103D3300EFFB80047A007B00022A223419FF022C55
:103D43007674F6120359750800750900780812088D
:103D53001E123D85123F9CE9A42AF97583277582BB
:103D63008CE49328FCA3E49339FD7A417B0012157C
:103D7300D2740212084CE9FE6003120C3CEEF90205
:103D8300472A90278C1234D39027902274F612037B
:103D93005974FE1208DE123DB312081E750802752F
:103DA3000900780812081E7C007D007A4102471F33
:103DB300851882851983E4F0A312401B8582088548
:103DC300830978082274F412035974E71208DE7E1B
:103DD300007F008518828519838582088583097889
:103DE3000812081E7508028E09780812081E7C0046
:103DF3007D007A41123EF012084CE96003023ED284
:103E03008E0A8E0B80587402120AA0AC82AD8374A2
:103E13000D120AA012512E120C54740A120AA0E0B9
:103E230060397411120AA085820885830978081203
:103E3300081E7412120AA0E0FD7411120AA0E0FC1D
:103E43007404120AA0AA82AB83740D120AA0E0F9CB
:103E5300120C00740212084C123C6B12294885188C
:103E630082851983123EE35066740B120AA0858281
:103E730008858309780812081E90278C1206CD90B6
:103E8300278C123EDBE8850AF0A4C8AAF0850BF064
:103E9300A42AFA850AF0123FB1123EF012084CE947
:103EA30070B9740A120AA0E4F0740C120AA0E0704C
:103EB30003023E09740A120AA07401F0740D120A77
:103EC300A01246457402120AA01246F8023E25EEDD
:103ED300FAEFFB74190247B3E493F8740193F922E0
:103EE300124AA6C3E50A98E50B99227A227B0012AF
:103EF30015DE74042274F512035974F01208DE857A
:103F03001882851983E4F0A3F0FE805A123FBF6440
:103F1300FF6050858208858309750A0078081208B6
:103F23001A1239FD7405120AA0AA82AB83125D012D
:103F330012084C7402120AA0858208858309780846
:103F430012081E90278C1206CD7404120AA0123F89
:103F5300F290278C123F9C123FB1123FFD12084C86
:103F6300123FE2123C70FF123C7840A08518828514
:103F73001983858208858309780812081E7508024B
:103F8300750900780812081E7C007D007A41123FF3
:103F9300FD12084C741002426E123EDBE88508F0F5
:103FA300A4C8AAF08509F0A42AFA8508F022E9A496
:103FB3002AF9740228FCE439FD7A4122123FC4E055
:103FC30022EEF8EFF9E875F00EA4F8AAF075F00EFA
:103FD300E9A42AF9E824ECF582E93419F58322856A
:103FE3001882851983E02401F0A3E03400F022E075
:103FF300F508A3E0F509221240057B001215D874D9
:104003000422EA75F00BA4FAACF075F00BEBA42CC8
:10401300FBEAFCEBFD7A232212401F22F085188273
:1040230085198322E8FAE9FBEA75F00EA4FAACF0ED
:1040330075F00EEBA42CFBEA24ECFAEB3419FB220B
:10404300EAF0A3EB1240A322C082C08374F31208E8
:10405300DE12420C6402700E124091120AA012404A
:104063009B120B52800CEAFCEBFD7403120AA012A4
:10407300407802476712407F120B5822AA82AB8313
:10408300120B2E851882851983AA82AB83228A821A
:104093008B83124AA6740122E8F0A3E91240A322FB
:1040A3001240A72212401F80E074F712035974F3E1
:1040B3001208DEECFEEDFF7404851882851983F087
:1040C300740B120AA0EAF0A3EB123309F508601D82
:1040D30074038E828F83A3A3A3A3A3A3A3A3F0122A
:1040E3000AA0AC82AD83EEFAEFFB121C9EA9080274
:1040F3003A60C082C08374F31208DE7404851882A8
:10410300851983F0740B120AA0124043120B5E74DC
:1041130001024769125138740D2274F6120359745F
:10412300F31208DE900336E0706E740485188285FE
:104133001983F0900375124095120AA01246F812E3
:104143000F84EAFCEBFD7403120AA01231FC120F78
:10415300908A088B09A808A9097401120AA0E068CB
:104163007003A3E069602B74FE68700374FF6960D9
:10417300217401120AA01246F87403120AA0AA823B
:10418300AB83120F96851882851983AA82AB83129B
:104193000B647401900336F0740D024727C082C08C
:1041A3008374F31208DE12420CFC74026C701E124C
:1041B3004091120AA0E8F0A3E9125A157048851835
:1041C30082851983AA82AB83120B64803974036CD2
:1041D3007011EAFCEBFD7403120AA0124078E97037
:1041E3002580DB74016C70128A828B8312464574BE
:1041F3000B120AA0E8F0A3E9800B740B120AA07457
:10420300FEF0A374FFF002476774048518828519D2
:1042130083F08A828B83A3A3A3A302656474F5123C
:10422300035978007900880888097C007D008003A1
:10423300123691902790E493FE740193FFC3EC9E92
:10424300ED9F5021ECFEED12427660E4AE08AF091B
:1042530074012EF508E43FF509EA6E7002EB6F7006
:10426300CFA882A983E8FAE9FB800312084C7F03F5
:1042730002056AFFEE75F00EA4FE85F00A75F00ED6
:10428300EFA4250AFFEE24ECF582EF1242922234CA
:1042930019F583E064FF22C082C08390034A749AB5
:1042A300F0A3740EF090034C7494F0A3740EF0908A
:1042B300035074CCF0A3740CF002477274F712032A
:1042C30059EAFEEBFF900384E0FA74086A601974FC
:1042D300046A60148E828F83E06401704612463054
:1042E30012524CE06406703B8E828F83A3A3124666
:1042F3004574FE68700374FF696028900375E06875
:104303007003A3E069700BEE2415F582EF12636D61
:10431300600AEEFA120F48E9F508800AEEFA120F66
:104323004E80F47508C2EEFAEFFB121572A908026B
:104333003A6574F21203598A088B098A828B83A324
:1043430085820A85830B8A828B83E0F8850A8285BE
:104353000B83E028FAE43400FB12156C8A0C8B0DF6
:10436300AE0CAF0DEE7001EF605C850882850983AA
:10437300E0FC7D0079001214DC8E828F83A3A312EC
:104383005E18120F8A8E828F83A3A3A3A31244699C
:10439300850882850983E0F8EE28F8EF3400F912E6
:1043A3004630124A89C0E0125BA8D0E0F0120F9C9D
:1043B300EE240E125BABE9124650E0C0E0EE24118E
:1043C300125BABD0E0F0EEFAEFFB8005740D120840
:1043D3004C7F0602056A74F412035974EB1208DE6B
:1043E300EAFEEBFF900346E07002A3E070677A07F2
:1043F3007B0012156C900346124469900346E070EB
:1044030002A3E0604C9003461259558F838E827449
:10441300071207988E828F837808120A61851882A3
:104423008519837808120A528E828F83A3A3A3A3CC
:10443300E0C0E07405120AA0D0E0126561C0E07428
:1044430004120AA0D0E0F07407120AA01245A98052
:104453000679108002790174150247B312463A12A5
:10446300513888828983EAF0A3EBF022C082C083AB
:10447300900346E07002A3E0601090034612512EB1
:10448300121572900346E4F0A3F0120EB8121092C4
:1044930002477274F312035974EB1208DEECFEED5B
:1044A300FF7422120AA07808120A617426120AA065
:1044B300E0FC7427120AA0E0FD7428120AA0E0F5BC
:1044C3000C740F6C7005740F6D6012901A9AE0648F
:1044D30002700579C10245A4ECC39D40F6900385A3
:1044E3007808120A52E990038BF0EC900389F0EDFF
:1044F30090038AF0E50C90038CF074FF6A700374E8
:10450300FF6B701F901AA7E064FF7004A3E064FFC1
:1045130070051214E8800C901AA7124649E8F0A31C
:10452300E98007900382EAF0A3EBF0EE7001EF60FD
:1045330017EEFAEFFB121152E96401700BEEFCEF78
:10454300FD7A967B03121C9E900375E4F0A3F09012
:104553000378F0A3F0900395F0901A9AE064027048
:104563000A740F900389F090038AF0740590038412
:10457300F07404120AA0E4F09003857808120A612B
:104583008518828519837808120A5290038BE0C03C
:10459300E07405120AA0D0E0F07407120AA01245D5
:1045A300A97415023AFFE41245AE221240A7121C69
:1045B300C822E0F912161A22C082C083900345E094
:1045C300700312180C120C9C024772C082C08390B5
:1045D3000345E07007E4901A2FF080317401901ABC
:1045E3002FF0900345E064FF60237C41E0C39441D6
:1045F3005002E0FCECFAE0C39AF0EC75F0E8A4CCCE
:10460300AAF075F003A42AFD7A8012461C7A2F7B48
:104613001A7941121CB60247727B009003D0E0F96D
:1046230012160E22F582EF12463A740122EE12465A
:104633003522240BF582EF3400F583228518828519
:104643001983124AA622124AA690038222124654C2
:1046530022F0850882850983A3A322F8A3E0F92227
:10466300C082C083EB90038CF0120EA6024772F84F
:10467300EF12489F8882F583E0221246E5A3E022E9
:1046830074F712035974F81208DEEAFEEBFF79009F
:10469300900384E06408704185188285198374FD52
:1046A300125E1A120F847402120AA012446974056E
:1046B300120AA0E41246E1E0C0E07404120AA0D09A
:1046C300E01246ECC0E07406120AA0D0E0F07407D2
:1046D300120AA0124A9A120FDE7408023A621246B4
:1046E300E522F08E828F83A322F0022C7685088246
:1046F300850983A3A3E8F0A3E9F022E5082401F5E3
:1047030008E5093400F5092212081E750802750927
:1047130000780812081E7C007D007A22123FFD12E9
:10472300084C740212084C7F0202056AC082C083DF
:104733009003567456F0A3740DF09003FC7438F094
:10474300A37410F090035A7486F0A3740DF09003D1
:104753005C7456F0A3740DF090035E748CF0A37434
:104763000DF0800B740B120AA012411712084CD0E3
:1047730083D08202053674F412035974F91208DEE9
:104783008A088B098C0A8D0B851882851983780812
:10479300120A527404120AA0E9F07405120AA0E482
:1047A300F07406120AA0124A9A120C84740780004D
:1047B30012084C7F0402056A74F01203598A828B33
:1047C30083125F0AEE7001EF700302489CEA240231
:1047D300F8EB12489F900312E07002A3E060138885
:1047E300828983E0F9EEFAEFFB90031212524C1226
:1047F3001E62EE2406F8EF3400F9880A890BEE24D2
:1048030009080808EF3400F9880C890D8882F583BC
:10481300E06402704B850A82850B83E05402605288
:10482300850882850983E064E96047EE240A08EF7E
:10483300126A5E700A901A9CE00488828983F0E011
:1048430014F07404850C82850D83F0901A9D125B1D
:10485300C2E8F0A3E9126A737001EB7003126546B4
:10486300850C82850D83E0FA74026A600574066A1A
:104873007027850A82850B83E0A2E0501C8508829D
:10488300850983E0F9EEFAEFFB121D4C850A828558
:104893000B83E054FEF0A3E0F0022D293400F988E5
:1048A3000889092274EC12035974DD1208DEEAFE4A
:1048B300EBFF8C128D137437120AA0780C120A6165
:1048C3007510007405120AA0AC82AD83120ABCEE07
:1048D300240BF508EF1247067405120AA0E0A2E5BF
:1048E3005019751001AC82AD838508828509831246
:1048F300512E121D58E96003024A427405120AA0A0
:10490300E0A2E650227406120AA0E0540370187461
:1049130005120AA0E0540CFA740C6A600A74086A5F
:10492300600575110180037511007405120AA0E07A
:104933005403FA74026A7013AC82AD8385088285CE
:10494300098312512E120ACE024A42EE2406F50AB8
:10495300EF12295074016A7037E5116003124A7827
:104963007405120AA0A882A9837403120AA0E8F0AE
:10497300A3E9124A9F851882851983124A89C0E0E8
:104983007402120AA0D0E0124A9B121E36024A4257
:10499300EA6003024A4290036CE06401700C850AEA
:1049A30082850B83E07003024A427422120AA074C8
:1049B30002124A9F741A120AA01246F8E5116008FF
:1049C3007405120AA0124A787405120AA0E0540C66
:1049D30064047073EE240FF582EF12636DC0E0740C
:1049E30017120AA0D0E0F0900314E07002A3E06075
:1049F3004E120F8A8A088B09A808A909741A120A89
:104A0300A0E0687003A3E0697035780C120816E51E
:104A130010F5087808120822781212081EA91174DA
:104A23000C120AA0AC82AD837421120AA0AA82AB35
:104A33008390031412524C121E62740712084C74B2
:104A43002312084C0239E7780C1208167812120860
:104A53001E9003821206A0A9107422120AA0AC822F
:104A6300AD83740D120AA0AA82AB83121D40740891
:104A730012084C80CAAC82AD8385088285098312F3
:104A83005138120AC222E8F0A3E9124A9122F085B2
:104A93000A82850B83E022E41240A322122DFF1227
:104AA3004AA622E002465EC082C083121704024770
:104AB30072C082C08312170A024772C082C0831277
:104AC3001710024772C082C083121716024772740E
:104AD300F71203597409120AA0E0F50878081208BE
:104AE300221217227401023A62C082C08312172E67
:104AF300024772C082C083121734024772C082C059
:104B03008312173A02477274F7120359EAFEEBFF56
:104B130074016970107900120DC87C1E7900EEFAD9
:104B2300EFFB120D44023A6574F412035974F9123F
:104B330008DE8A088B098C0A8D0B7413120AA012E3
:104B4300512E901165E07002A3E06027E985188279
:104B5300851983F07401120AA07808120A52EAF840
:104B6300EBF97405120AA012409B90116512524C86
:104B7300121E620247AFC082C08312176A024772D5
:104B830074F7120359901A32E0F97F00800B124D2B
:104B9300C0540D64017001190F124D7D5003E9706B
:104BA300ED023A6574F7120359901A33E0F97F0066
:104BB300800B124DC0548D64817001190F124D7D0D
:104BC3005003E970ED023A6574F3120359890CE955
:104BD30075F006A4F8A9F0740C28F508E439F50972
:104BE300EA2508FAE43509FB12156C8A0A8B0BAE29
:104BF3000AAF0BEE7001EF6025AC08AD0979001226
:104C030014DC124630E50CF0EE2508F8EF3509F90F
:104C13008E828F83A3A3A3A3A3A3A31246F6EEFAC4
:104C2300EFFB023B0274F6120359EAFEEBFF120D8F
:104C330020901A31E0FAE9C39A40099003521251C5
:104C43002E120D26EE2402F8EF12489F900354E033
:104C530088828983F0900354E004124C6D120D2C6A
:104C6300850882850983E0023D81F0EEFAEFFB229D
:104C7300C082C083790090035280010912512E8AA9
:104C8300828B83E5827002E58370F002477274F7CA
:104C9300120359EAFEEBFFEE7001EF605E900352E0
:104CA300E07002A3E060549003521254DF7A007B59
:104CB30000800FAA82AB831254DFE5827002E58382
:104CC3006039EE65827003EF658370E78E828F83B0
:104CD300124645900352125955EE6C7002EF6D70F7
:104CE3000590035280048A828B831246F8EEFAEF12
:104CF300FB121E06EEFAEFFB121572023A65C08232
:104D0300C083900352E0F8A3E08003ECF8EDF9E8E8
:104D13007001E96009125951EC7001ED70ED8A825E
:104D23008B83E4F0A3F0E87001E96006888289834D
:104D3300800390035212446902477274F7120359B5
:104D430090035280048A828B83125E0E7001EB60A3
:104D5300227F0080010F124D7D50EAEF75F006A40B
:104D6300FCADF0EA2CFCEB3DFD7410124DD46970E0
:104D7300E480047A007B00023A65124DE1FCEFC344
:104D83009C2274F71203597800800108124DDDFD4F
:104D9300E8C39D5025E875F006A4FEAFF0EA2EFEA9
:104DA300EB3FFFEE2410F582EF12636D6970DCEECA
:104DB3002411F582EF12636D4CF0023A65EF75F042
:104DC30006A4FCADF0EA2CFCEB3DFD7411124DD4AE
:104DD300222CF582E43DF583E022124DE122EA2400
:104DE3000BF582EB3400F583E02274F612035912BB
:104DF3000E407A008010EA125D5B124E7E125D66F1
:104E0300F0125037F00A9027961268A640E87A000D
:104E1300801E8A08750900740378081209DF12637B
:104E23005C88828983124E7EA3A3A3A3A3A3F00A63
:104E33009027A31268A640DA7A00801A8A087509B7
:104E430000740378081209DFE5082477F582E50981
:104E53003419125E160A1268A340E1902792E49374
:104E6300900360F0124E6D02472A7CE87D037A10AE
:104E73007B009003D0E0F912161422124E8222A373
:104E830074FEF0A374FFF0E488828983A32274F094
:104E930012035974F51208DE8A088B09890A8C0BF0
:104EA300E9A2E050147508FC7509FFA2E15005D290
:104EB300E4024F5BD2E3024F5B120E228A0C8B0D8E
:104EC300A80CA90D900375E0687003A3E069700551
:104ED3007900025032AC0A7902AA08AB09120E1CFF
:104EE300E960EDE50AF50C780C12082279027CFEE4
:104EF3007DFFAA08AB0912564D12084CE960030264
:104F03005030E50AC2E5F50A9003C2E0704CE50AA9
:104F1300A2E640467403120AA0AC82AD83AA08AB92
:104F230009120B3AE9702D12513EF8EBF9EA7001C0
:104F3300EB6027E82402FEE93400FF0A0AFB120BA8
:104F430034E96016EEFCEFFD7403120AA0AA82ABEB
:104F530083121C9EE50AD2E5F50A900355E0F50C91
:104F6300900375E0F50EA3E0F50F780E12081E7D91
:104F7300017C00900355E0F9AA0EAB0F120DD47417
:104F83000212084CE9FA900355E004F0EA600302C8
:104F93005030E50AA2E550047A0E80027A067401C5
:104FA300120AA01260C58A0E8B0FAE0EAF0FEE7001
:104FB30001EF60751250451246311240958882897F
:104FC30083F07478550A125037A3A3E50C1263716A
:104FD300E508F0E50988828983A3A3A3A3F0E48805
:104FE300828983A3A3A3A3A3F0E50AA2E5501474C3
:104FF30003120AA0AC82AD83E82406FAE93400FB6D
:10500300121C9E8E828F83A3A374FD125E1AE50B7E
:10501300600EC3941E5009EE2413125BABE50BF034
:10502300EEFAEFFB120C7880067910800279C774D0
:105033000B022D26A312503C22F08001F9888289AD
:105043008322EE24171246377401F0120F84EE24E4
:105053001A124637EAF0A3EBF0EE22C082C0839027
:105063001202E06401901A9B7006E0FC790180044F
:10507300E0FC79037A007B00120D4402477274F45A
:105083001203598A088B09E9FE121014E960067AA3
:10509300FF7BFF8078901A9AE064027063790012B4
:1050A3005113EA7001EB6042126A59FC74016C708F
:1050B30022900374E08A828B83A3A3A3A3F08A8242
:1050C3008B83A3A312512E74FE6A700374FF6B606B
:1050D30010803A74036C601A74046C70047AFE8056
:1050E300B088828983E0640270089003C1E064029F
:1050F300700E12513E7001EB6006AA08AB09800DD9
:10510300AA08AB0990035612524C121E620247B60C
:10511300AA08AB0912511B22120E22EEF9120E1627
:1051230022EA240BF582EB3400F5831251382285F1
:105133000E82850F83E0FAA3E0FB22125146121080
:10514300D4EA22900382E0FCA3E0FDAA08AB092283
:1051530074F7120359EAFEEBFF120B8EE9700AEEA5
:10516300FAEFFB120B9AE96006EEFAEFFB80047A82
:10517300FE7BFF023A6574F21203598A088B098C8D
:105183000A8D0BE9FE7F00121014E9790060030217
:105193005242AA08AB09126BE47002E5836017A3BD
:1051A300A3A3A3A3E0FA74026A704F9003C1E0645F
:1051B300027003025240AA08AB0990035C12524CDE
:1051C300121E62120BA08A0C8B0DA80CA90DE8709D
:1051D30001E96069E82405F582E912636DA2E050F4
:1051E3005C750C01A2E1501C7901AC08AD09AA0A57
:1051F300AB0B120D74E9700F804374036A703E7534
:105203000C028003D2E1F0900375E0650A7004A3F9
:10521300E0650B700E7C1EEEF9AA08AB09120D4473
:105223000F801AA90CAC08AD09AA0AAB0B120D74B6
:10523300E9700A0FEEF9AA08AB09120DC8EFF902DB
:1052430043D4EEFAEFFB90035812525022E0F8A336
:10525300E0F58388822274E812035974F01208DEA1
:105263008A148B158C088D097428120AA0E0F51096
:10527300A3E0F511900402E07002A3E06012126B48
:10528300EA7002E5836009A3E0700579000254BE69
:10529300E514241DF516E5153400F517851682125D
:1052A30054DDA3E0F50A8882898312562DFA888299
:1052B3008983A3A3A3A3E0F9EAFEE9FFAA08AB0944
:1052C300120DCEE9FA1254E5E02AF50B530A78E5FC
:1052D30014240BF50EE5153400F50F780812081E9B
:1052E3007D001254D012084CE9FA74036A609CEAF8
:1052F30070407418550A70030253DCE50AD2E0F5D6
:105303000AA2E45004D2E1F50AE50AF50D780D127C
:1053130008221254C312084CE970178510828511B4
:105323008374FFF0A3F0850E82850F8312512E1232
:105333001728851082851183E064FF7004A3E0645D
:10534300FF60399003C1E06402700302528E850E40
:1053530082850F83E0FAA3E0125248121E62EA65C7
:10536300087003EB6509600302528E125245121E48
:1053730062851082851183EAF0A3EBF078081208A6
:105383001E7D011254D012084CA90AEEFAEFFB124B
:105393000E228A088B09A808A909900375E0687092
:1053A30003A3E06960030254B5EEFAEFFB12326720
:1053B3007002E5836064A3A3A3A3E0FA74016A60A7
:1053C3000574026A7054851882851983AC82AD8393
:1053D300EEFAEFFB120B3A805590036EE0600FE597
:1053E3000AF50D780D1208221254C312084CE50A6F
:1053F300F50D780D12082279027CFE7DFFEEFAEF9F
:10540300FB12564D12084CE9600302533585108296
:1054130085118374FFF0A302537E120F84EAFCEB21
:10542300FD851882851983AA82AB83121C9E85147D
:1054330082851583A3A3A3A3A3A3A3A3E0640170FD
:105443001AE5142415F582E515125BAE125955744D
:1054530008120AA0AA82AB83121C9E8516828517A6
:105463008312524CA3E04430F508780812082274E2
:1054730001120AA0858208858309780812081E7420
:105483000B120AA0858208858309780812081EE595
:105493000CF50878081208227900EEFCEFFD850E62
:1054A30082850F8312512E120D6E740612084C0260
:1054B300528E1254E5E50BF0120F9C7410026884AF
:1054C3007901AC08AD0912513212564D22AC0BA929
:1054D3000C125132120DD4740222F583124AA60221
:1054E3005040851682851783125250025BC774EEB3
:1054F30012035974F01208DE8A108B11EA241DF589
:105503000EEB3400F50F850E821254DD12562DFC7E
:1055130088828983A3A3A3A3E0FBECFEEBFF88822D
:105523008983A3A3A3A3A3E0FC88828983A3A3A362
:10553300A3A3A3E0FAE4CAFBECF508EBF509888220
:105543008983A3A3A3A3A3A3A3E0F50A88828983E2
:10555300A3E05478F50BA2E45016E82408FCE934E0
:1055630000FD7408120AA0AA82AB83121C9E7A085B
:10557300E50BA2E55024EAF8850E82850F83E02827
:10558300F8A3E03400F9740828FCE439FD85188297
:10559300851983AA82AB83121C9EAC0AA90CEEFA6E
:1055A300EFFB120DDAE9FA74036A6079900375E090
:1055B3006E7003A3E06F605EEA7054E50BF50D783F
:1055C3000D12082212563912084CE97058780B1242
:1055D30008227401120AA085820E85830F780E12A9
:1055E300081E740B120AA085820E85830F780E1293
:1055F300081EE50CF50B780B120822A90AAC08ADBE
:1056030009EEFAEFFB120D6E740612084C80167445
:10561300046A701180B7E50BF50A780A12082212A2
:10562300563912084C74100259AAA3A3E0F50C884A
:105633008289830265657901E510240BF582E51102
:1056430012463A12514912564D22120D92740122FA
:1056530074E812035974F51208DEEAFEEBFF8C08B6
:105663008D0989127423120AA0E0F50F7424120A1B
:10567300A0E0F516A3E0F5177428120AA0E0F50ED2
:10568300A90F120DE08A108B117401120AA074087D
:10569300F0E50EA2E450037410F0E50EA2E5500409
:1056A300E02408F0851882851983AA82AB83120F40
:1056B300FC8A0C8B0DEA7001EB7003025804EA2498
:1056C30017F582EB12462AF0120F84E50C241AF523
:1056D30082E50D125BAE124469E50C2418F514E55E
:1056E3000D3400F515E50C2416F50AE50D122950C5
:1056F3007403120AA0AC82AD83AA10AB11120B3A49
:10570300E9601E7401850A82850B83F07403120A13
:10571300A0A882A983851482851583E8F0A3E98074
:1057230025E50EA2E45020E5106E7003E5116F70BD
:10573300167401850A82850B83F08514828515838F
:10574300E516F0A3E517F0E50C12580BE50D125B17
:10575300AE1260B67402850A82850B83F0A3E50E50
:10576300125810E50FF0EE850A82850B83A3A3A3DD
:10577300F0EF850A82850B83A3A3A3A3125810A37A
:10578300A3A3E508F0E509850A82850B83A3A3A3F8
:10579300A3A3A3F0AA10AB11120DCEE92512850A1B
:1057A30082850B83A3A3A3A3A3A3A3F0750800E59A
:1057B3000EA2E45014AC16AD17E50A2408FAE50B63
:1057C3003400FB121C9E750808E50EA2E5501C74FC
:1057D30026120AA0125955E50A2508F8E50B3400EC
:1057E300F9740828FAE439FB121C9E850C82850D96
:1057F30083A3A3E510F0A3E511F0AA0CAB0D120CE3
:1058030078740B026884E508240BF58222F0850A7C
:1058130082850B83A3A32274F21203598A088B098E
:10582300ECFEEDFF890A7900120E22900375122E09
:10583300926A7002E96B70047901802A750B01E8A2
:1058430065087003E965096012A90AEEFCEFFDAA79
:1058530008AB09121050E9F50B80097901EEFAEF54
:10586300FB120CF6A90B0243D474F51203597EBF45
:105873007F177A101259597001EB7003124E6D9015
:105883000360E014F0700C902792E493900360F0AF
:10589300120E2E750A008052EE2404F582EF126375
:1058A3006D603D14F07039EE240512467264037086
:1058B3001579028E828F831259558E828F83A3A30B
:1058C30012512E120D74850882850983E0640160EC
:1058D3000F8E828F83125E18E4850882850983F018
:1058E300050AEE2407FEEF3400FF9027951259496D
:1058F30040A6750A00802C850A0875090074037890
:10590300081209DF1263572407F582E912636D1445
:10591300F0700E88828983A3125E18E488828983DB
:10592300F0050A9027A312594940CC750A00800B51
:10593300E50A125CF0600214F0050A9027961259EA
:105943004940ED024271E493FAE50AC39A22888240
:105953008983125BDD227B009003D0E0F9121620CD
:10596300EA2274F6120359E97024790090035A125B
:10597300524C121E628A088B09AE08AF0974FE6E80
:10598300700374FF6F701A90279CE493601379017E
:1059930090035A12524C121E628A088B09AE08AF4A
:1059A30009120FC002303E12084C7F0A02056A74C6
:1059B300F612035974F31208DE1214E88A088B09ED
:1059C300AE08AF09900375E06E7003A3E06F60E962
:1059D300120F90EA6E7002EB6F60DEEEFAEFFB12CD
:1059E3001014E970D4EE7001EF60CEE4851882855F
:1059F3001983F07401120AA0EEF0A3EF125A157086
:105A0300B874FE6E700374FF6F60AEEEFAEFFB02C4
:105A1300419B1240A3120B52E922C082C083120F92
:105A2300C002477274F2120359EAFEEBFF8C088D31
:105A330009890A740E120AA0E0F50B74FC6E700358
:105A430074FF6F700579000243D47900120E228A25
:105A53000C8B0DAE0CAF0D900375E06E7003A3E0DD
:105A63006F7006E50BA2E650DCA90B125B8E70018A
:105A7300E9701279007AFE7BFF125B8E7001E97088
:105A830004790280C288828983EEF0A3EFF074FE6A
:105A93006508700474FF6509600988828983A3A37C
:105AA300125CE8E82406F582E9125BAEE50BF0A28E
:105AB300E05003D2E2F0E82404FAE93400FBE824DE
:105AC30005F8E93400F97401650A702674018882C7
:105AD3008983F0900374E08A828B83125BD5AA08D2
:105AE300AB091210FEEA7001EB6003025A487C0016
:105AF300801E88828983E064017003025A48900300
:105B030073E08A828B83125038E50AF0025A480CFC
:105B1300902798E493FAECC39A4003025A487B0017
