:020000040000FA
:06000000020A5A0201CAC7
:03002B00021FCAE7
:0300330002069C26
:030043000208C8E8
:03004B0002076643
:0300530002011D8A
:03005B0002077524
:0300630002078110
:03006B0002068208
:100083000201660101FF01010503010F10FEFF03D9
:100093000003000300030003000300030003000345
:1000A3000005000A00140028004F009E00000047CE
:1000B30013471347134713FD11F7114713E72100A4
:1000C3000000008521000000000C0000000C00016E
:1000D3000000BF1F000000000000331500000000F7
:1000E30000000000D904FF010101003511000000E8
:1000F300AA11E80364006400B801020200080000CA
:100103000502071E02051E020A03B80B02803E0108
:1001130003320002F1FF01020206C0E074F212038F
:10012300DCE5A7F8E5A1F95854106008121BB15398
:10013300A1EF802AE8A2E0C0D0E9A2E092F0120980
:1001430097158182F05017906198E0F89014B1E010
:10015300C398A2D265D0335002E8F053A1FE7F01C9
:1001630002043BC0E074F21203DC9061A4E0F87572
:100173009B00E59158540860087591F7121BF380B2
:100183002AE59158541060087591EF121BF9801BF2
:10019300E8A2E0C0D0E591A2E092F01209971581A0
:1001A30082F05007E0C2E0F0121D199061A3E0F85D
:1001B300E5E9585404600E121CEF75E9FB90619356
:1001C300E0A2E640F28097C0E074F21203DC906193
:1001D300A5E0F8E5BF585404600653BFFB121D3178
:1001E300020161C3E498F8E499F91202278026C357
:1001F300E49AFAE49BFBE920E7E9120227E498F882
:10020300E499F922C3E498F8E499F9120227E498EF
:10021300F8E499F9C3E49AFAE49BFB22EB20E7CFD5
:10022300E920E7E0B90010BB0008E88AF084F8AAE7
:10023300F022E4FBC8FA22EB70227B10C833C8C952
:1002430033C9335007C39AC3DBF280069A50012A9D
:10025300DBEAC833F4C8C933F4C9FA2275F008E4F9
:10026300C833C8C933C933C99AC99B5004C92AC9F9
:100273003BD5F0ECFBC833F4C8E4C9FA22080808FC
:10028300EAC0E0EBC0E086F0E7A4FA180986F0E7DD
:10029300A42AFA180986F0E7A42AFA180986F0E7CF
:1002A300A42AFA1986F0E7A4FBE5F02AFA190886CE
:1002B300F0E7A42BFBE5F03AFA190886F0E7A42B44
:1002C300FBE5F03AFA18180986F0E7A4C5F02BFB12
:1002D300E43AFA1908E7C5F0C6A426F6E5F03BFBB5
:1002E300E43AFA1886F0E7A4F6E5F00826F6E43BCC
:1002F30008F6E43A08F6D0E0FBD0E0FA22E4CFC0F7
:10030300E0E4CEC0E0E4CDC0E0E4CCC0E075F02092
:10031300C3E633F608E633F608E633F608E633F6C3
:10032300181818EC33FCED33FDEE33FEEF33FFC347
:10033300EC9709ED9709EE9709EF97191919400FF3
:10034300FFEC97FC09ED97FD09EE97FE191906D509
:10035300F0BEECF709EDF709EEF709EFF7191919F4
:10036300D0E0FCD0E0FDD0E0FED0E0FF222518C5B0
:1003730082C0E0E51934FFC583C0E0E518C3958268
:1003830024F810AF0885831985821880088583199E
:10039300858218D2AFCEF0A3E520F0A37808E60853
:1003A300F0A3DEFAEFF0A3E58124FAF8E608F0A360
:1003B300E608F0A3E608F0A30808E608F0A3E608B9
:1003C300F0A315811581D0E0FED0E0F815811581E9
:1003D3001581E8C0E0EEC0E022C0D02518C582C078
:1003E300E0E51934FFC583C0E0E518C3958224F323
:1003F30010AF088583198582188008858319858243
:1004030018D2AFC8F0A3E9F0A3EAF0A3EBF0A37905
:1004130008E709F0A3D8FAECF0A3EDF0A3EEF0A3FC
:10042300EFF0A3D0E0F0A3D0E0F0A3D0E0F0A3E599
:1004330020F0A3E5F0F0A322851983851882E0C09C
:10044300E0A3E0F9A3E0FAA3E0FBA37808E0F60851
:10045300A3DFFAE0FCA3E0FDA3E0FEA3E0FFA3E03B
:10046300C0E0A3E0C0E0A3E0F5D0A3E0F520A3E063
:10047300A3F5F010AF08858319858218800885835A
:1004830019858218D2AFD082D083D0E0F8D0E03281
:10049300120ABCB900030204D5E49003017832794F
:1004A300188002F0A3D8FCD9FA901A32AA82AB833F
:1004B300900086789879018015E493A3AC82AD838C
:1004C3008A828B83F0A3AA82AB838C828D83D8E943
:1004D300D9E77582697583D174031205377582C5AF
:1004E30075831F7400120537D083D082ECC0E0ED12
:1004F300C0E0E493A3FCE493A3FDED4C600D12066E
:100503000DEC24FFFCED34FFFD80EFE493A3FCE44A
:1005130093A3FDED4C600D120711EC24FFFCED34A9
:10052300FFFD80EFD0E0FDD0E0FCE493A3C0E0E466
:1005330093C0E022C0F0F5F0E59F5407C0E0E59FCB
:1005430054F845F0D0F0F59FE473859FF053F0F82D
:10055300D0E045F0F59F22D083D082E59F5407C0B9
:10056300E0E493C0E0740193C0E07402935407C0C5
:10057300F0F5F0E59F54F845F0D0F0F59F2285198A
:1005830083851882E0A3FEE0A3F5207808E0A3F6B4
:1005930008DFFAE0A3FFE0A3C0E0E0A3C0E0E0A32C
:1005A300C0E0E0A3C0E0E0A3C0E010AF088582187C
:1005B3008583198008858218858319D2AFD083D0AB
:1005C3008202054DD083D082E9C0E0E493A3C386C1
:1005D300F0C5F095F0F908E493A386F0C5F095F023
:1005E300700BE493A3C3994005E9048002A3E47567
:1005F300F002A42582F582E5F03583F583D0E0F996
:10060300E493A3C0E0E493C0E022C0E0C3E4939684
:10061300087401939618400FE493667008087401F8
:1006230093661870007019A3A3C3E493960874012A
:10063300939618A3A3400DD0E0D0E0D0E0020527A5
:10064300A3A3A3A3A3A3D0E022D083D082C5F0E4C5
:1006530093A3C5F0C395F0F5F0E493A3C395F040DD
:1006630005E5F0048001E475F002A42582F582E536
:10067300F03583F583E493A3C0E0E493C0E022C0A4
:10068300E074F21203DCE589A2E15003121A7F75CC
:100693008900C2C57F0102043BC0E074F21203DC8F
:1006A300E58BA2E05003121A7F758B00C2E880E449
:1006B3007404800474028000CCC0E0EDC0E0E5184F
:1006C300C39CCCAD1950011D10AF068C188D198039
:1006D300068C188D19D2AF1207AFD0E0FDD0E0FC25
:1006E3002274028000CCC0E0EDC0E0E518C39CCCCE
:1006F300AD1950011D10AF068C188D1980068C188A
:100703008D19D2AF12078DD0E0FDD0E0FC22C0E0FE
:10071300C0F088F0E493667008087401936618705B
:1007230000A8F0A3A3700BD0F0D0E0D0E0D0E0029B
:100733000527A3A3D0F0D0E022D083D082CCC0E0A1
:10074300E493A360061207EF1470FAE493A3600620
:100753001208DF1470FAD0E0FCE493A3C0E0E49342
:10076300C0E022C0E074F21203DC121B037F01021B
:10077300043BC0E074F21203DC121B0980EFC0E0FB
:1007830074F21203DC121B0F80E3CAC0E0E493A3EC
:10079300C582CCC582C583CDC583F0A3C582CCC534
:1007A30082C583CDC583DAE5D0E0CA22CAC0E0E0C2
:1007B300A3C582CCC582C583CDC583F0A3C582CC36
:1007C300C582C583CDC583DAE6D0E0CA22700908A5
:1007D3000808226016181818C6C333C608C633C6DD
:1007E30008C633C608C633C6D5E0EA22C0E0E493A0
:1007F300A3D39C5010E493A3C39C400AD0E0D0E061
:10080300D0E0020759A3A3A3D0E022C008C3E09617
:10081300F50808A3E096420808A3E096420808A357
:10082300E09645087001D3D008222518F58210AF51
:1008330008F518400215198008F51840021519D259
:10084300AF851983227404800A74038006740280BE
:10085300027401C0E0F40412082DD0E0120A9722BA
:10086300C0D0251810AF08F518500205198008F5F7
:100873001850020519D2AFD0D022BB0102E722C023
:1008830082C08389828A83BB0003E08002E493D021
:1008930083D082226016080808C6C313C618C6137D
:1008A300C618C613C618C613C6D5E0EA22C3E0C6E7
:1008B30096F608A3E0C696F608A3E0C696F608A344
:1008C300E0C696F622C0E074F21203DCC2C0E5D1A2
:1008D300A2E45003121B337F0102043BC0E0E49304
:1008E300A36C7009D0E0D0E0D0E0020759A3A3D0F5
:1008F300E022251810AF08F518400215198008F5F5
:100903001840021519D2AF22E066701008A3E06602
:10091300700A08A3E066700408A3E06622C3E096A9
:1009230008A3E09608A3E09608A3E096A2D265D0B8
:100933003322C3E7960809E7960809E7960809E70B
:1009430096A2D265D03322C3E096F008A3E096F0D6
:1009530008A3E096F008A3E096F022E026F008A3AF
:10096300E036F008A3E036F008A3E036F022E627ED
:10097300F60809E637F60809E637F60809E637F612
:1009830022E026F608A3E036F608A3E036F608A32D
:10099300E036F622C0E0E8C0E0E58124FCF8E6A2F8
:1009A300E7D0E0F8D0E022700422600D18C6C3330C
:1009B300C608C633C6D5E0F41822E657F60809E69A
:1009C30057F60809E657F60809E657F622E056F601
:1009D30008A3E056F608A3E056F608A3E056F6226D
:1009E300E056F008A3E056F008A3E056F008A3E0B1
:1009F30056F022E647F60809E647F60809E647F601
:100A03000809E647F622E4C396F608E496F608E4F6
:100A130096F608E496F622C3E7960809E7960809CE
:100A2300E7960809E79622C6F4C608C6F4C608C6C0
:100A3300F4C608C6F4C622600D08C6A2E713C6189A
:100A4300C613C6D5E0F322C3E09608A3E09608A335
:100A5300E09608A3E0962275D000758140751801D1
:100A630075190300020493600C08C6C313C618C6A5
:100A730013C6D5E0F422E6F008A3E6F008A3E6F0F7
:100A830008A3E6F022E0F608A3E0F608A3E0F608E0
:100A9300A3E0F622CAC0E0E6F0A308DAFAD0E0FA4F
:100AA30022E0FAA3E0FBA3E0FCA3E0FD22EAF0A32B
:100AB300EBF0A3ECF0A3EDF022E5C754F84401F505
:100AC300C77901222518F582E43519F58322120529
:100AD3005A9AF90112055A6D870112055A7F870147
:100AE30012055A9E870112055A0F880112055AA949
:100AF300880112055A7B890112055AEB89011205F7
:100B03005A068A0112055A2A8A0112055A658A0170
:100B130012055AA58A0112055AC68A0112055A13EB
:100B23008B0112055AED8B0112055A9E8C01120599
:100B33005A2E8D0112055A1E8E0112055A618E011D
:100B430012055A868E0112055ADC8E0112055A01CE
:100B53008F0112055A26900112055A9A9001120527
:100B63005ABD900112055AE0900112055A089101ED
:100B730012055A1A910112055A24910112055AA815
:100B8300910112055A17920112055AC092011205DA
:100B93005AC8920112055A69930112055AC9930161
:100BA30012055A95940112055A0C950112055A49DA
:100BB300950112055AA8950112055AF596011205D9
:100BC3005A11970112055A73970112055A10980189
:100BD30012055A57980112055AF2980112055A9FA5
:100BE300990112055ADD990112055A4D9A01120510
:100BF3005A989A0112055AD19A0112055AFF9B017C
:100C030012055A399D0112055A9A9D0112055AE39C
:100C13009D0112055A0B9E0112055A8E9E01120563
:100C23005A0E9F0112055A889F0112055A999F0176
:100C330012055A0FA00112055AB3A00112055AF565
:100C4300A00112055A8BA10112055AC7A101120571
:100C53005ADAA10112055A33A20112055A74A201EC
:100C630012055AE7A30112055A7DA50112055AA3DD
:100C7300A50112055A40A60112055A8AA6011205BA
:100C83005ACFA60112055ABBA70112055ABEA901E4
:100C930012055AC8A90112055AD2A90112055ADC34
:100CA300A90112055AF6A90112055A00AA01120553
:100CB3005A0AAA0112055A14AA0112055A35AA01A1
:100CC30012055A83AA0112055AA7AA0112055ACB83
:100CD300AA0112055A28AB0112055A73AB0112057A
:100CE3005A91AB0112055A01AC0112055A3EAC01EF
:100CF30012055A85AC0112055AEDAC0112055A9141
:100D0300AD0112055A5EAF0112055A81AF011205FA
:100D13005A53B00112055A79B00112055A59B1015B
:100D230012055AF1B30112055A53B50112055A1AA5
:100D3300B70112055A6CB70112055A65B8011205BD
:100D43005AB2B80112055A1DB90112055A27B90141
:100D530012055AE3BA0112055A12BC0112055A725E
:100D6300BC0112055A28BD0112055A10BE01120515
:100D73005ACDBF0112055AECBF0112055A48C001F2
:100D830012055A20C10112055A45C10112055A968E
:100D9300C10112055A78C20112055AB0C2011205E7
:100DA3005AF0C20112055A53C30112055A6FC40106
:100DB30012055ACFC40112055AB5C50112055ABD11
:100DC300C70112055AD9C70112055A7EC901120576
:100DD3005AC4C90112055AA2CA0112055AFCCA0112
:100DE30012055A44CB0112055AB4CB0112055A42DB
:100DF300CC0112055AC6CC0112055A32CD01120597
:100E03005A13240012055A65240012055A9F26001E
:100E130012055AEB260012055ABD270012055A3453
:100E2300280012055A77290012055AC42B0012050F
:100E33005AEB2C0012055A52350012055ACF3500D1
:100E430012055A4F380012055A3B390012055AE071
:100E5300390012055AFD3A0012055A143E001205D4
:100E63005A16400012055A76400012055A2C4100CA
:100E730012055ADD410012055A08420012055AA90B
:100E8300420012055A8D430012055A6844001205A8
:100E93005A06450012055A33450012055A554500B6
:100EA30012055A48470012055A28480012055A7578
:100EB300480012055AD6480012055A9849001205EF
:100EC3005ACD490012055A1B4A0012055A4B4A00D3
:100ED30012055A894A0012055AE14A0012055AE6D8
:100EE3004A0012055A414B0012055A694B0012057C
:100EF3005A884C0012055AF44C0012055A5E4D00F4
:100F030012055AEA4D0012055A01510012055ACD35
:100F1300510012055A3D530012055A91550012050E
:100F23005A39560012055AEE560012055A7C5800DB
:100F330012055A19590012055A61590012055AFD32
:100F43005A0012055A115B0012055A1E5B00120566
:100F53005A395B0012055A455B0012055A635B0060
:100F630012055A1A5D0012055A535D0012055A60A4
:100F73005D0012055AA25D0012055A955E00120526
:100F83005AD95E0012055A5C5F0012055A5C600074
:100F930012055A1A610012055AB9620012055A8ED7
:100FA300630012055A2F640012055ABF640012052C
:100FB3005AD6640012055A0F650012055A196500C6
:100FC30012055A25650012055A43650012055A8712
:100FD300650012055AD8650012055AF96500120515
:100FE3005A13660012055A8B660012055ACC670025
:100FF30012055A16680012055A09690012055A2586
:10100300690012055A88690012055ADD6900120544
:101013005A9B6A0012055AAA6B0012055A566C00B5
:1010230012055A2D6D0012055A996D0012055A2D9D
:101033006E0012055AFD6E0012055A2C6F00120540
:101043005A8B6F0012055A39700012055A5F7000EF
:1010530012055AD7700012055AFC700012055A1F68
:10106300710012055A5A710012055A38730012059D
:101073005A1B740012055AD3740012055A6876007D
:1010830012055ABC760012055AFF760012055A6EF5
:10109300770012055AE2770012055A3B78001205D1
:1010A3005A61780012055A9C780012055AC87800D4
:1010B30012055A13790012055A6C790012055AE881
:1010C300790012055AC67A0012055A587C00120597
:1010D3005AC57C0012055AEE7C0012055A547D0055
:1010E30012055AAB7D0012055AE47D0012055A39E8
:1010F3007E0012055A5E7E0012055AA47E00120578
:101103005AC17E0012055A6B7F0012055AA57F0053
:1011130012055AF07F0012055A6C800212055AA07C
:10112300800212055A76810212055A4A820212057A
:101133005A75830212055AF9840212055A778502F9
:1011430012055A3E860212055A5F870212055AD1CA
:10115300870212055A33880212055A818802120542
:101163005A8B880212055AC9880212055A3289021B
:1011730012055AD1890212055A4F8A0212055A04DE
:101183008B0212055A768B0212055A9C8B021205AA
:101193005ACC8B0212055AF98B0212055A9F8C0204
:1011A30012055AAF8C0212055A028D0212055A0E0D
:1011B3008D0212055A1A8D0212055A238D02120549
:1011C3005A848D0212055AE48D0212055A358E0295
:1011D30012055A508E0212055A808E0212055AA128
:1011E3008E0212055AAD8E0212055AEE8F021205B7
:1011F3005A0C900212055A75900212055A889002F1
:1012030012055A9F900212055A32910212055A3161
:10121300920212055A2D930212055AAF9302120538
:101223005AB9930212055A1C940212055A2D9402BC
:1012330012055A70940212055AB7940212055AED18
:10124300940212055A23950212055A41950212057A
:101253005A65950212055AA6950212055A999602E5
:1012630012055ADF960212055A1A970212055A7985
:10127300970212055AA1970212055ADA970212052C
:101283005AE8970212055A49980212055A8698029B
:1012930012055AC8980212055AF9980212055A2DD6
:1012A300990212055A38990212055A5699021205E3
:1012B3005A1E9A0212055A289A0212055A679A026E
:1012C30012055A7D9A0212055AE79A0212055AFB31
:1012D3009A0212055AF39B0212055A069C02120542
:1012E3005A1B9C0212055ABB9C0212055A1F9D02EF
:1012F30012055AE29D0212055AED9D0212055A0C7F
:101303009F0212055A289F0212055A809F02120556
:101313005AB79F0212055AD19F0212055A45A002DD
:1013230012055AD6A00212055A1EA10212055A39F5
:10133300A30212055AA3A30212055A0EA402120510
:101343005A67A60212055A77A60212055A7AA6020E
:1013530012055A86A60212055A9AA60212055AA225
:10136300A60212055AD7A60212055A85A70212052C
:101373005AF5A70212055A59A80212055AF2A802F1
:1013830012055A8CA90212055ABAA90212055A4A21
:10139300AA0212055A56AA0212055A85AA02120572
:1013A3005AA7AA0212055ACEAA0212055A34AB0250
:1013B30012055A9EAC0212055AA1AC0212055A1824
:1013C300AD0212055A04AE0212055ADCAE02120532
:1013D3005A66AF0212055A9BB00212055A4DB1026A
:1013E30012055A86B10212055AB7B10212055AC044
:1013F300B10212055AACB20212055A28B302120501
:101403005AB8B30212055A82B40212055A06B5023B
:1014130012055A3CB50212055A85B50212055A3017
:10142300930312055A3E930312055AA79303120519
:101433005ADF930312055A32940312055ACE9503C9
:1014430012055AAE970312055A8D9A0312055AB91B
:101453009A0312055AD99A0312055A379B031205A8
:101463005A759B0312055AB39B0312055AF99B0342
:1014730012055A65E50312055A83E50312055AD48A
:10148300E50312055A19E60312055AC3E6031205CA
:101493005A31E20312055A76E30312055AEDF201BB
:1014A30012055A4DFA0112055A57FA0112055A7ECE
:1014B300FA0112055A92FA0112055AF8FA011205B5
:1014C3005A28FB0112055A2AFC0112055AFAFC019B
:1014D30012055A5AFD0112055AA3FD0112055AE0DD
:1014E300FD0112055A43FE0112055A6FFE01120552
:1014F3005AFAFE0112055A7CF90112055AC6DE0397
:1015030012055ADFDE0312055A59DF0312055A0684
:10151300E00312055A2EE00312055A91ED0312055A
:101523005A12EE0312055A1DEE0312055A008003E8
:1015330012055A03800312055AC4800312055AF296
:10154300800312055A4D810312055A718103120556
:101553005A91810312055ADB810312055A0982034A
:1015630012055A38830312055A67830312055A88F2
:10157300830312055AE3830312055AA68403120553
:101583005AC6840312055A3B860312055AD38603AF
:1015930012055ADC870312055A45880312055A734C
:1015A300880312055A38890312055A6D89031205F7
:1015B3005AA0890312055ADC890312055AE68903E6
:1015C30012055A2E8A0312055A9C8A0312055ABF22
:1015D3008A0312055A5F8B0312055A0E8E031205F6
:1015E3005A178E0312055A648E0312055A8D8E0301
:1015F30012055AED8E0312055A838F0312055AB74B
:101603008F0312055A04900312055A5E90031205C4
:101613005A8C900312055A14910312055A599103D7
:1016230012055A98910312055ACD910312055ADFF8
:10163300910312055AF1910312055A1092031205F0
:101643005AC7920312055A07930312055A93EC03E0
:1016530012055A08DB0312055A6CDB0312055A9074
:10166300DB0312055A89DC0312055AE2DB02120579
:101673005AC1DC0212055AFDDC0212055A9ADE0237
:1016830012055ADCDE0212055A90E00212055AD402
:10169300E00212055AB5E10212055A42E2021205AE
:1016A3005ACDE20212055A23E30212055A63E302FA
:1016B30012055A05E50212055A8EE60212055AA5CD
:1016C300E80212055AB3E80212055A18E902120594
:1016D3005A62E90212055A3BEC0212055ADFFF0176
:1016E30012055AF5FF0112055A12F00312055A1298
:1016F300CE0312055A25CE0312055AC3CE03120593
:101703005AFECE0312055A19CF0312055A3ECF03D0
:1017130012055A83CF0312055AB4CF0312055AE5B3
:10172300CF0312055A5CD10312055ACDE303120508
:101733005A3AE40312055A56E40312055A98E4038D
:1017430012055AA8E40312055A40E50312055A4A42
:10175300E50312055A62E50312055ADEEE0312058C
:101763005A3BEF0312055A7CEC0212055ACAEC02EB
:1017730012055ABAED0212055A44EE0212055A8EA8
:10178300EE0212055ADDEE0212055A3AEF02120575
:101793005A4EEF0212055A38F10212055AB5F102F8
:1017A30012055ADFF10212055AD5F30212055AF057
:1017B300F30212055A31F40212055A6DF4021205AE
:1017C3005AC6F40212055AE4F40212055A47F50206
:1017D30012055AC6F60212055AFBF60212055A23DF
:1017E300F70212055A30F70212055A35F7021205AD
:1017F3005A38F70212055A84F70212055A2DF802D5
:1018030012055A52F80212055A5CF80212055A5F81
:10181300F80212055ACAF80212055AE5F80212052F
:101823005AF8F80212055A5EF90212055A99F9029A
:1018330012055A9CF90212055A62F00312055A7AEC
:10184300F00312055A3AA70312055A89A703120592
:101853005A2DA90312055AE3AA0312055A2BAB0307
:1018630012055A71AC0312055ABCAD0312055ADEB8
:10187300AD0312055A28AE0312055AAAAE03120588
:101883005A50C90212055A7BC90212055A68CA0284
:1018930012055AF1CA0212055A54CB0212055AA074
:1018A300CB0212055A0FCC0212055A99CC0212052B
:1018B3005A10CD0212055A52CD0212055A12D10204
:1018C30012055AEFD20212055A28D30212055AE022
:1018D300D30212055AE3D30212055AC3D4021205E6
:1018E3005A0CD60212055A2FD80212055AAAD80248
:1018F30012055AEBD90212055ABFDA0212055A4CE5
:10190300DB0212055ACBB50212055A8AB60212053A
:101913005A01B70212055A10B70212055A95B702B7
:1019230012055AFEB70212055AFEB80212055A27CB
:10193300B90212055AC0B90212055A03BA021205B6
:101943005A60BA0212055A3ABD0212055AF4BD0290
:1019530012055A59BE0212055A00C00212055AB4A2
:10196300C00212055A4FC10212055AA8C10212053C
:101973005A13C20212055A23C30212055AE0C402C3
:1019830012055A17C60212055AB0C60212055A1A90
:10199300C70212055A10C80212055A41B8031205AC
:1019A3005AB3B80312055A1CB90312055A8AB9036C
:1019B30012055AC2B90312055A4ABA0312055A93B9
:1019C300BA0312055AF0BA0312055A68BB0312058B
:1019D3005A6DBB0312055ADFBB0312055A56D403D3
:1019E30012055AA5D40312055A5ED50312055AC42B
:1019F300D50312055A35D60312055ADDD103120554
:101A03005A36D20312055AB5D30312055ABDFE0244
:101A130012055AF7FE0212055AB2FF0212055A7F47
:101A2300E00312055A8DE00312055AE1F103120592
:101A33005A79EF0312055A89EF0312055AA7EF03E8
:101A430012055A08F00312055A63E90312055A8A6C
:101A5300E90312055A0FEA0312055A68EA0312054D
:101A63005ADD9E0312055A81EA0312055AA3EA03BB
:101A730012055A0DEB0312055A18EB0312055A5CB3
:101A8300EB0312055ADEAE0312055AECAE03120540
:101A93005A28AF0312055A42AF0312055ABFAF03C8
:101AA30012055AB9B00312055ADEB00312055AFBE8
:101AB300B00312055A18B10312055A3DB1031205BA
:101AC3005A65B10312055AB4B10312055A2EB20373
:101AD30012055AD2B20312055AADCA0312055ABBF4
:101AE300CA0312055A35CB0312055A01CC0312055A
:101AF3005AADCD0312055AD8E60312055A11E7036E
:101B030012055A2EE70312055A8CE70312055AF100
:101B1300E70312055AEBF90212055A58FA021205A5
:101B23005A14FB0212055A31FC0212055ACDFD026A
:101B330012055A31FE0212055A86FE0212055A8F09
:101B4300FE0212055A9EFE0212055AB4FE02120547
:101B53005A91B30312055AE4B30312055AECB503C1
:101B630012055A1EB60312055A40B60312055A59F6
:101B7300B60312055A72B60312055A74B703120557
:101B83005A02B80312055AF7DC0312055A29DD037A
:101B930012055A35DD0312055A68DD0312055A99F9
:101BA300DD0312055AC7DD0312055A3CDE03120595
:101BB3005A6BDE0312055A419C0312055A679C03B4
:101BC30012055AA49C0312055AB69C0312055AD255
:101BD3009C0312055A409D0312055A499D031205A1
:101BE3005AA89D0312055ACC9D0312055A8B9E03D6
:101BF30012055A989E0312055AA99E0312055A7399
:101C0300FF0112055AC0FF0112055A85C7031205C9
:101C13005ACDC80312055ADAC80312055AEDC80390
:101C230012055A0CC90312055A22C90312055A3662
:101C3300C90312055AB0C90312055A46CA0312054D
:101C43005A8ECA0312055A9ECA0312055A45EE0359
:101C530012055A69EE0312055A91EE0312055AB999
:101C6300EE0312055AB8D60312055AD1D60312054C
:101C73005ADDD60312055AF1D60312055A0FD703BC
:101C830012055A19D70312055A23D70312055A36D8
:101C9300D70312055A8AD70312055AC3D70312056D
:101CA3005AF2D70312055A40D80312055A8FD803A4
:101CB30012055AAAD80312055AB4D80312055AC5F5
:101CC300D80312055A0BD90312055AB0F0031205B3
:101CD3005A009F0312055A2C9F0312055A489F036B
:101CE30012055A5B9F0312055A719F0312055ADDB1
:101CF3009F0312055A10A00312055A6DA303120580
:101D03005A98A40312055ACBA40312055A30A5030B
:101D130012055A18A60312055A40A60312055A556E
:101D2300A60312055A65A60312055AA9A6031205AE
:101D33005AFEA60312055A0EA70312055A30E803EA
:101D430012055A4BE80312055A74E80312055A8E1A
:101D5300E80312055AB3E80312055AD2E803120541
:101D63005AEAE80312055A18E90312055A32E9033D
:101D730012055AF8F00312055ABFC30312055AC6D7
:101D8300C30312055AD2C40312055A02C50312052E
:101D93005A28C50312055A5BC50312055A6DC503BC
:101DA30012055AA7C50312055A0DC60312055A4652
:101DB300C60312055A92C60312055ABFC60312057B
:101DC3005ADFC60312055A16D90312055A2ED90330
:101DD30012055A20DA0312055A93EB0312055AF23D
:101DE300EB0312055A30EC0312055A71EC0312058A
:101DF3005A7DBC0312055A9CBC0312055AE7BC0367
:101E030012055A03BD0312055A34BD0312055A4B7A
:101E1300BD0312055A58BD0312055A75BD031205B9
:101E23005A58BE0312055A8FBE0312055A99BE03B0
:101E330012055AA0BF0312055AABBF0312055ABDC0
:101E4300BF0312055AC6BF0312055AD0BF031205BA
:101E53005A37C00312055AB1C30312055A6EF10370
:101E630012055A38F10312055A9BF10312055AC39E
:101E7300F10312055AC0EF0112055A65ED0112056F
:101E83005A09EC0112055A5DEB0112055AA4E90146
:101E930012055AB4E70112055A45E70112055AEA39
:101EA300E60112055A77E60112055A4DE6011205BD
:101EB3005A3BE40112055A13E40112055AB8E3012F
:101EC30012055A95E30112055AC4E20112055A6C30
:101ED300E20112055AD6E00112055AD3E0011205B8
:101EE3005AD3DF0112055AB3DF0112055A03DF018A
:101EF30012055A85DD0112055AAFF80112055A136E
:101F0300F80112055AA7F60112055A4FF4011205FA
:101F13005AE2F30112055A4CDD0112055A1DDD0187
:101F230012055A1ADD0112055A0CDD0112055A91E8
:101F3300F30112055AF8DC0112055AE5DC0112051A
:101F43005AE7DB0112055A77DB0112055A54FF01E8
:101F530012055AFAF20112055A3DDB0112055AE540
:101F6300DA0112055AB4DA0112055ACCD701120567
:101F73005A8AD70112055A7ED70112055AF1D601A2
:101F830012055A3FD60112055ADED30112055A48EB
:101F9300D10112055A12D10112055AA6CF01120519
:101FA3005A55CF0112055A99CE0112055AEBCD01AC
:101FB30012055ABECD0112055A84CD0112055ACA23
:101FC300F90100000080FBC2C732E473000136361A
:101FD30001010001020100010301000104010606E1
:101FE30005020000070100340801000F0904010184
:101FF3000D0100FF0E08000017020000190100FF89
:102003001A0100011B0100FE1C0100081D02000053
:102013001F01000120010001210200002301000F24
:10202300240200002601000127010008280200FF06
:102033002A0100072B0102402C0100002D010001A1
:102043002E0100012F0100FF30010B1C310800009D
:102053003A0100083B01000F2F0100000302710247
:1020630030016002110270020102020202028002C8
:10207300100261023A0041006302730272026202BB
:10208300430200021302380000020002040212029B
:1020930000020002000200020402040237003700BB
:1020A3003C02440200023900000200026502000201
:1020B300350281020002050282028302000201014D
:1020C300710101010101110101013101010101014D
:1020D3008001100161013B0014006301730172016F
:1020E300620143010001130106013D0135000401B2
:1020F3001201000100010001000104010401330188
:1021030033013C0144013201360000010001650145
:1021130000013500810100010501820183010001F5
:102123000304710402046004110470040204020431
:10213300010402041004610400041404630473041E
:10214300720462044304000413040604000400043C
:102153000404120400040004000400045104640095
:102163000004000400044404000400040004000408
:102173006504000435048104640005040004830439
:1021830000040103710301030103010301030103BC
:1021930022030203010310030003000300030003EF
:1021A30000030003000342030003240306030003A8
:1021B300000304031203250323032503230304035A
:1021C3000403000300030003440300030003230389
:1021D30000036503210035038103000305030003A6
:1021E3000003000303007100300160001100700060
:1021F300310220035004800010006100000014002D
:1022030063007300720062004300000013000600C5
:1022130000000000040012000000000000000000A5
:1022230004000400370037003C02440000000000B3
:10223300000000006500000035008100000005007B
:1022430000008300000036000100060000000F00BC
:1022530000000000000000000000000003FFFF007A
:10226300000403FFFF0000FFFF0FF4010005C40497
:102273000320000100000B00000000000000000329
:10228300010F000041191300E11801004119020078
:10229300991803009F180400A5180500AB18060041
:1022A300B7181100D5181400DB181500C918FFFF63
:1022B3000000013D0E06670E08610E0B790E10C576
:1022C3000D02430E05550E07490E0C250E0D310E5A
:1022D300FF0000030003000400080010001F003E7D
:1022E300007B00F600EC01D703AF075D0FB91E7149
:1022F3003D0000571287125D126312811275126F2F
:10230300128D1293129912A512691251124B1203D4
:10231300EAF5E5D5D5C5B5A5959585857575656545
:1023230055554545353525251515059C36063A7011
:102333003DD9404344AD47174B814EEA5100160F38
:1023430000000B150B020002220F320000060001F1
:1023530002030405060708090A0B0C0D0E0F4713A9
:1023630059135F13211265131B122712BF13DD13B9
:10237300E313C513D113CB135B11551191119711AE
:102383008B114311303017181921301B1D1F3000DA
:10239300034948424D181725050200383C3E363B99
:1023A3003B352B432C303016181920231A1C1E30B2
:1023B3000C0E020B040B0A0708000F000119161874
:1023C3001616152303007B129F12D713AB12B112FB
:1023D300B3136B1371137D13771367116D116111B0
:1023E3009D110005150D09100804000000000000F0
:1023F3007311851100BE040A0E00040015000103C9
:1024030009280C05100C0A0900040008040F0C0825
:10241300C082C083E99003D0F0E4900384F0121DDE
:10242300C79003E3E4F0A3F09003D1F0A3F01210FC
:1024330083120B3D120CF9121DCD900346E4F0A359
:10244300F0900400E07002A3E06009900400125DC4
:1024530073121FCD902410E493FA7902121E3302F3
:102463004CED74F2120370EAFEEBFF74805FF9E443
:102473007001E960619003D0E0F91215F38A088BCB
:1024830009EA7001EB60467B0080010BEB75F003FA
:10249300A424B5F8E5F03422F988828983E493FA19
:1024A30074FF6A6021850882850983E06A70DCAA6B
:1024B30008AB0988828983A3E493C0E0740193F590
:1024C30083D082121FCDAA08AB091215E7EEFA7466
:1024D300806FFB02269174105FF9E47001E9601DBF
:1024E300120EF78A088B09EA7001EB600A120E31AB
:1024F300AA08AB091215E7EEFA741080D4EE542043
:1025030070030225DE750C0012498A7001EB70100E
:102513007C027D007A207B009003D0E0F912170D36
:102523007C0079047A007B00120EC18A088B098033
:102533000D740188828983F0850A08850B09E508F3
:102543007002E50960707C007904AA08AB09120ED9
:10255300C18A0A8B0B750C01E5082404F8E50912FE
:1025630050B824FFF0A3E034FF12556F7002A3E0CC
:1025730070C6E5082409F8E5093400F98508828561
:102583000983A3A3A3A3A3A3A3A3A3A3E0640170A9
:10259300A0850882850983A3A3A3A3A3A3E054046E
:1025A300708F740688828983F07AB78508828509DB
:1025B300831227B28082120E917C0079017A007B0C
:1025C30000120EC1EA7001EB7009E50C70057A2068
:1025D30012269474206EFAEF0224D5EE541060078D
:1025E300120D35741080EEEE54406007120DAD7479
:1025F3004080E2EE54806007120C4B748080D674E6
:10260300015FF9E47001E9601A900402E07002A32B
:10261300E06009900402125D73121FCDEEFA74019B
:102623000224D474085FF9E47001E9602D120D05EA
:10263300901207E06401701B901208E06015FC75AE
:10264300F0E8A4CCAAF075F003A42AFD7A007B0875
:1026530012282BEEFA74080224D474025FF9E47092
:1026630001E9600A12104DEEFA74020224D47404D4
:102673005FF9E47001E960121260F2125A3C7901C9
:10268300123931EEFA74040224D47A007B00022C4E
:10269300DE7B009003D0E0F91217132274F71203C4
:1026A3007074E11208F5EAFEEBFFEE7001EF6033A0
:1026B300851882851983AC82AD83120F27740612A5
:1026C3000AC7E0601E7417120AC7E0FD7401120AFC
:1026D300C7E0FCEEFAEFFB79001214F7E960047926
:1026E300A480027900024C3274F6120370EAFEEB06
:1026F300FF8E828F83A3A3A3A3A3A3124A84544070
:1027030060178E828F83125D7312626760067AFF91
:102713007BFF80321227A6802390036FE0A2E15053
:1027230018741059F9E47001E96004794080027962
:10273300001227A6120D0B8003120F4B74FE6A7052
:102743000374FF6B60458E828F83125D731262B3D5
:10275300120FC9E98E828F83600612279FE48005DA
:1027630012279F7401F07C0D7D0E8E828F8312538E
:102773002B121E2DE9F5087015EE7001EF60097933
:1027830001EEFAEFFB120E9D025D697508CDAA08F2
:102793008E828F831227B2E960DF80ECE0240D1272
:1027A3005333228E828F831264B2FAA3E0FB22E0BA
:1027B300240C124C83F9120E192274F6120370E9D9
:1027C300FEEAFF7A0F7B001215E1EA7001EB601954
:1027D300740C8A828B83F0EEA3A3F0EF8A828B833F
:1027E300A3F0125F5379008034EEF9120EC78A0802
:1027F3008B09A808A909E87001E9601F740688829B
:102803008983A3A3A3A3A3A3A3127411A3A3A3A321
:10281300A3E0F9120DBFEEF9120EA37910025D7C4D
:10282300EAFCEBFD7A017B009003D0E0F912170775
:102833002274EE120370EAFEEBFF8C088D09890EF9
:102843007412120AC7E0F510A3E0F511851082F5A2
:1028530083E4F0A3F0122947EE241DF8EF3400F9C6
:10286300880C890D888212296C60191229607014F2
:10287300850A82850B83124DD885108285118312B8
:102883005A3C8003750E00850C82850D831264AE5D
:1028930012064C01094229AE28C828DA28E528D1B6
:1028A3002806294229192932293B29781012085070
:1028B300AC08AD09EEFAEFFB120D1D7402120863AA
:1028C300E9F50E807AEEFAEFFB120D238071EEFA32
:1028D300EFFB120D658068A90EEEFAEFFB12100BE9
:1028E30080DEEE2417126A8564027053E50E700AC7
:1028F3001229547003A3E0697045EEFAEFFB120F3F
:1029030099803CEE2417126A8564027032EEFAEF66
:10291300FB120F818029900404E07002A3E0601F82
:10292300EEFAEFFB900404125D73121FCD8010EEDC
:10293300FAEFFB1210178007EEFAEFFB121023A930
:102943000E02584EEE2409F8EF3400F9880A890B79
:1029530022850A82850B83126807E06822850A8232
:10296300850B8312626B640222F5831264B2F9123F
:102973000FABE92274ED12037074DE1208F5EAFE60
:10298300EBFFEE24021250C1F9120EC78A088B091D
:10299300EA7001EB7003022A5CEE240C122BADEA01
:1029A3002409F50AEB127317EA2406F50EEB123429
:1029B300E58E828F83A3AE82AF83E064F16017E07C
:1029C30064CD6012E0641A600DE064E96008E064BD
:1029D300E16003022AEC850E82850F83A3E054088D
:1029E300F9E47001E9607F7405850A82850B83F041
:1029F300900408E07002A3E06009900408125D737C
:102A0300121FCD90040AE07002A3E0603390036FBD
:102A1300E0A2E1502B850882850983126A95A3A35E
:102A2300A3A3A3A3A3124C3C1234F1EA7001EB60FD
:102A33000F8E828F83E0F990040A125D73121FCD0B
:102A4300850A82850B83E0640270037406F08510A7
:102A530082851183E0F9120EA3120E9174221208DB
:102A6300637F0B0205817900120E9DE9607B900361
:102A73006FE0A2E15064850882850983126E1870A5
:102A830002A3E060557403120AC7126E028E828F8E
:102A930083E064E97018122BB51208548E828F8379
:102AA300E0F5127812120854123DE1120863740C17
:102AB300120AC712532B125D6D1262B37408120A05
:102AC300C7E06004794080027900740E120AC712CD
:102AD30050C9740C120AC71234EA850E82850F831B
:102AE300E04420F0A3E00229F28E828F83E0C0E06D
:102AF3007402120AC7D0E01256E1126043126A79D7
:102B0300126A88851882851983AA82AB837005129D
:102B13000C818003120FA58E828F83E064F16034F1
:102B2300E064CD602FE0641A602AE064E16025E090
:102B330064F060207402120AC7E0FC74B76C60147E
:102B4300122BB5120854ECF5127812120854123DE8
:102B5300E112086390036FE0A2E14003022A438578
:102B63000A82850B83E06402702A850E82850F83B7
:102B7300E05404601F125D6D1262677013125D6D85
:102B830074FFF0A3F07405850A82850B83022A5033
:102B9300740380F38E828F83E064E96003022A4327
:102BA300AA08AB09121029022A43F50CEF3400F5E9
:102BB3000D2285088285098312649B7512017812A0
:102BC3002274F2120370EAFEEBFF750C00750D0020
:102BD300EE2409127314EE2405F8EF1267B4603A79
:102BE300750C08850A82850B8312532B79FF121FFC
:102BF3002FEA7001EB600D750C2C85088285098323
:102C0300E0D2E0F0850882850983E0540364016023
:102C130003022CC5430C11022CC5EE2418126A853D
:102C2300603AEE241A126A85FA701D122954700351
:102C3300A3E0697006750C22022CC5900384E0643E
:102C430004707F750D01807AEE241B1250C6EE24AA
:102C530019122CE3120D77E9706880E7122960706E
:102C630003750C01850A82850B831259587003A3DF
:102C7300E06B7006E50CD2E1F50C1241D2E50C6075
:102C830015850882850983E07006E50CD2E580048A
:102C9300E50CD2E6F50C120FC9E964017006E50CE8
:102CA300D2E0F50C850882850983E06015EE241DCA
:102CB300F582EF340012296C64016006E50CC2E072
:102CC300F50CE50CA2E1400AE50D7006E50CD2E730
:102CD300F50CA90C800574031208637F06020581B5
:102CE300F582EF126A8FF92274E812037074DC1212
:102CF30008F5EAFEEBFF8518828519831260547587
:102D030014007515007405120AC7AC82AD838E8258
:102D13008F83A3A3A3123DD1A3A312532B120F2777
:102D2300EE241BF582EF124DD57412120AC7125A04
:102D33003C740B120AC7E06022741C120AC7E0FD40
:102D43007406120AC7E0FC8E828F83A3A312532B4F
:102D530079011214F7E960030232F27405120AC70B
:102D6300AA82AB83120E2BE9F508740B120AC7E093
:102D7300700E90036CE06008E9A2E140030232F2B6
:102D8300E9A2E650277422120AC7126254E06403D0
:102D93007006A3E0640D60147405120AC7AA82AB1F
:102DA30083120FFFE9640170030232F2EE2412F57D
:102DB30016EF3400F517EE242A127314EE242C12A6
:102DC300763E123AF6E0687003A3E069701C750959
:102DD3000078091208547809120854EE242E122C94
:102DE300E31234FD123DF11208637408120AC7E0BE
:102DF300FA900372E06A60030232F2740B120AC79C
:102E0300E07003022EA01234FD1234F18A0A8B0BF8
:102E1300A80AA90BE87001E97003022F4D7406128A
:102E23000AC71234F8FAA3E03400FB740D2AF582C2
:102E3300E43BF583E0FAE82404F50AE9127317E8A2
:102E43002403F582E9126A886A600DEAF0908751DB
:102E5300780C120A8812353C79047406120AC712D8
:102E630034F8FCA3E034008C82F583A3AA82AB83FD
:102E73001215CF8A0C8B0D8C0E8D0F850A82850B54
:102E8300837810120A887810790C120A1A500302F8
:102E930032F2908759780C12098412353CEE2424BF
:102EA3001234E2EE2430122BADEE242F1273149061
:102EB300036FE0A2E15003022FE4900384E0FA746D
:102EC300046A600874096A60030232F2E508A2E545
:102ED3004003022F93126A82C0E07402120AC7D021
:102EE300E012352FC0E07403120AC7D0E0123E0B84
:102EF300C0E07404120AC7D0E0F07416120AC7E0E7
:102F0300640170207410120AC71235237003A3E002
:102F1300697011740E120AC71229667007741612AB
:102F23000AC7E4F0850E82850F831206B374061276
:102F33000AC7AC82AD837409120AC7AA82AB831293
:102F43000C8774041208630232F29003C9E064012F
:102F53006003022EA07422120AC71264AE640670C4
:102F630009E508A2E65003022EA07412120AC7E074
:102F730064FF7004A3E064FF70030232F2EEFCEF1F
:102F8300FD7405120AC7AA82AB83120E370232F20E
:102F9300A2E640030232F27422120AC712350D7000
:102FA3001C741C120AC7E0640260030232F2740547
:102FB300120AC7AA82AB83120F990232F274076A0C
:102FC30060030232F2741C120AC7E0640460030255
:102FD30032F27405120AC7AA82AB83120F8D023232
:102FE300F27416120AC7E0601D8E828F83A3A312A8
:102FF3003E0614124459A3123E06C0E07416120A88
:10300300C7D0E0F07006E508C2E7F508E508A2E3DB
:103013005066751510A2E25018740A120AC7E054DC
:10302300E3F0740A120AC7E0131313541FFAE08083
:1030330031A2E4502F740A120AC7E0FB741C5B131D
:1030430013543FFA600974076A600A1AEA7006E5C6
:1030530008C2E7F508EA333354FCC0E074E35BFAD3
:10306300D0E04AF0740A120AC7E0C0E08E828F8370
:10307300A3A3124817D0E0F0900384E0FA74046A23
:10308300600574096A706D740E120AC7125958707C
:1030930003A3E06B6017120FC9E96402600F740A9F
:1030A300120AC7E05403640160030232F274071288
:1030B3000AC7E07027126A82C0E07402120AC7D0FE
:1030C300E012352FC0E07403120AC7D0E0123E0BA2
:1030D300C0E07404120AC7D0E0022F267422120A39
:1030E300C712350D7003022FA474076A60030232FE
:1030F300F2022FC87509007461550870030232FA91
:10310300E508A2E0507D8516828517831250C974A5
:1031130005120AC7AA82AB83120DB3E97062120FBC
:1031230057E9F5097416120AC7E0700F7410120AF2
:10313300C71235237003A3E0696048A90985168285
:103143008517831250C97405120AC7AA82AB83126A
:103153000DB9E96020E508A2E3500C8518828519B2
:103163008374FFF0A38008740E120AC7126414F06C
:10317300751404800EE508C2E5F50875090080039F
:1031830053089FE508A2E55048126A82C0E0740222
:10319300120AC7D0E012352FC0E07403120AC7D059
:1031A300E0123E0BC0E07404120AC7D0E0F0850EB3
:1031B30082850F831206B37406120AC7AC82AD83ED
:1031C3007409120AC7AA82AB83120C87740412080B
:1031D30063E508A2E6504485188285198385820A2F
:1031E30085830B780A120850A909851682851783EF
:1031F3001250C97407120AC7AA82AB83120E1F7436
:1032030002120863E9F50960127422120AC71264F4
:10321300AE6401700674104514F51485188285197F
:1032230083E064FE7004A3E064FF7003750900E5A6
:1032330008A2E740030232F2E50970030232F28585
:1032430018828519831235237003A3E069700B7408
:103253001D120AC7E07003022F808E828F83A3A3FF
:10326300A3A3E0FA7B0012165F8A0A8B0BEA7001B4
:10327300EB607C8E828F83A312351512084C8E82ED
:103283008F83A3A3A3A3E0FC7D0012444A12086327
:103293007407120AC7E0C0E07402120AC7D0E0F054
:1032A3007403120AC7E4F0A3F07402120AC78582FA
:1032B3000C85830D780C1208507814120850E50918
:1032C300F50878081208548E828F83A3A3A3A3E082
:1032D300F97405120AC71250C9AA0AAB0B120F0FD1
:1032E3007405120863E96007AA0AAB0B121665742A
:1032F3002412086302554D7407120AC7E064017073
:103303003B7422120AC71264AE6405702F851882BB
:103313008519838582088583097808120850790006
:103323008516828517831250C97407120AC7AA82A9
:10333300AB83120E1F740212086380B37416120A51
:10334300C7E07003022F80120E97E970A2741D125A
:103353000AC7E0700302341F7420120AC71250C94F
:10336300741F120AC7E0FA741E120AC7E0F9120D9D
:1033730077E97003023407741F120AC7E0F9701962
:10338300740E120AC7125A3985188285198312429C
:103393008BEA7001EB7064805F7420120AC71253CA
:1033A3002B120D718518828519831262B3740D1265
:1033B3000AC7E06004780880027800E82408FA74F9
:1033C3000C120AC7E06004780880027800E82AFA41
:1033D300740A120AC7E06004780180027800E82AC0
:1033E300FA0AEAF88E828F83A3A3E028FAA3E034D3
:1033F300008A82F583E014F0751440120F57E9F543
:103403000902321E790B740E120AC71250C97410C6
:10341300120AC712532B1210050232F2740E120A4B
:10342300C7125A39E508A2E350047A4080027A00B1
:10343300EAF5097809120854741E120AC7AC82AD62
:1034430083740F120AC712532B740A120AC7E0F9C6
:10345300120DE37401120863E9600F7514208E8264
:103463008F83A3A31264AE543FF0741D120AC7E006
:103473006023740E120AC71250C9741E120AC7AA17
:1034830082AB83120F218518828519831262B3746C
:10349300404514F5147407120AC7E06401601579F6
:1034A300007410120AC71250C9740E120AC71253BD
:1034B3002B120D7DE508A2E35004794080027900C8
:1034C3007410120AC71250C9740E120AC71234EAD2
:1034D300E970030233FE74204514F5140233FEF53C
:1034E3000EEF3400F50F22124C7F120D1722124CEF
:1034F3007F1210B322126D5E2A22850A82850B8306
:103503001250CD851682851783221264B2FA740491
:103513006A22A3E0F50CA3E0F50D750E00780C22EA
:103523001251B4851682851783E06822123533223F
:10353300F0850A82850B83E022850A82850B83E569
:103543000CF0A3E50DF0A3E50EF0A3E50FF0227454
:10355300F2120370EAFEEBFF8C088D0912294779FA
:10356300008882F58312532B120DD18A828B83E557
:10357300827002E583603AA3A3A3A3A3A3E0541834
:10358300602FE508241BF582E5091276411206B780
:10359300E5082412F582E5091276411206B7EE24F6
:1035A30018122CE31235BF120DEF74041208638056
:1035B3000879001235BF120D2F022CDE850A828591
:1035C3000B831250CDEE240B124C782274EE1203AF
:1035D3007074EA1208F58A0C8B0DEA2402F50EEBDF
:1035E3001234E50A0AFB120B738A088B09AE08AF83
:1035F30009750901850C82850D83A3E0F508750A19
:1036030001AC0EAD0F851882851983AA82AB831294
:103613001DEB7408120AC7126054740A120AC774A5
:1036230002F07413120AC7E4F0E50C240AF50CE562
:103633000D122BB0901A35E07010EE7001EF700A86
:10364300E50870067509C30237A5900384E0640892
:1036530060067509C20237A1850C82850D83E0A23D
:10366300E1500EA2E35005750A04800C750A03802D
:1036730007A2E35003750A02EE7001EF60648E82C5
:103683008F83A3A3A3A3E0FA74046A600574036A97
:10369300700C7404650A601C7403650A6016740276
:1036A3006A600574016A70207402650A6006740119
:1036B300650A700F8E828F83124126120AC7125A2F
:1036C3003C801F74026A600574016A700A8E828FDF
:1036D30083124292121FCDAA0EAB0F120B7F7E00F4
:1036E3007F007408120AC7E064FE7004A3E064FF5D
:1036F3007038120B37E97032E50860179003C1E0A8
:103703006402700F901A3C124126120AC7E8F0A314
:10371300E98016850C82850D83E05402F9120D3B76
:103723007408120AC7EAF0A3EBF07408120AC7126E
:103733003848700374FF6B70057509C78060E5082E
:10374300F50B780B120854850C82850D83E0F9ACD8
:103753000EAD0F120C9F7401120863E97040A90AA1
:10376300AC0EAD0F7408120AC712392A8A108B11D6
:10377300AE10AF11EE7001EF601C74026508700BA0
:10378300EE2405126A8554FB4408F0740A120AC732
:10379300E4F0F50980087408120AC7126054E508BA
:1037A300700F851882851983AA82AB83121E0F803E
:1037B30010FCA90A851882851983AA82AB83120F8C
:1037C30087E9FAEE7001EF603EEE2405F8EF34006E
:1037D300F9E508601288828983E0D2E6F074026515
:1037E300087004E0D2E5F0850C82850D83E0A2E643
:1037F300500888828983E0D2E7F08E828F83A3A367
:10380300A3A3A3A3E004F0E5097003EA602FFC7D02
:10381300007A017B10121DD3EE7001EF6007AA0E30
:10382300AB0F120B7F7408120AC712384870037467
:10383300FF6B600990035E125D73121FCD74161245
:10384300086302584E124C7F74FE6A2274F6120308
:103853007074F71208F58A088B09900384E0FA74F0
:10386300036A600D74016A600874096A60030239AF
:103873001F8508828B83A3AE82AF83E06003023986
:10388300047C007D007A027B00121DD3E50824022C
:10389300123922126803125A3C7953121E0379001B
:1038A300123931900384E064096009900382125352
:1038B3002B1210AD7401125D997404900384F0749B
:1038C30001120AC7AA82AB83794A121DFD74011241
:1038D3000AC7AC82AD837A7A7B03121DEB7900743D
:1038E30001120AC7AC82AD8390037812392A900380
:1038F3006FE0A2E35004D2F08002C2F0125D818037
:1039030018FC7D007A037B10121DD38E828F83E017
:10391300F9123931E4900384F0120E73025D77FAE1
:10392300E50934000251C7124C7F120B4F2290035A
:1039330082124C7F120C9922C082C083900346E00E
:103943007002A3E07041900384E012073C0003017E
:103953005D39056C39067B398A3990034EE0700274
:10396300A3E0607690034E806B90034AE07002A35D
:10397300E0606790034A805C90034CE07002A3E030
:10398300605890034C804D900346E07002A3E060C2
:1039930009123E03FC74016C702379009003D180FB
:1039A3000909EA126020EB127641124A167001EB04
:1039B30070EF9003D112532B120C8D801D74026C87
:1039C30070051210418013900406E07002A3E060BA
:1039D30009900406125D73121FCD024CED74F412AC
:1039E300037074FB1208F58A088B097A0F7B0012A7
:1039F30015E18A0A8B0BAE0AAF0BEE7001EF700371
:103A0300023AF174028E828F831268FD7950121D7F
:103A1300FD850882850983A3858208858309E06083
:103A230003023AD990038212740A700374FF696027
:103A33002F74FE68700374FF6960258518828519E9
:103A430083E0687003A3E069601674EA85088285E1
:103A53000983123FFE7A827B037950121E0380761C
:103A6300851882851983123AF6125A3C7A757B03BC
:103A73007953121DFD900375126275125A3C7A78C0
:103A83007B03794B121DFD7A777B0379E1121DFDD0
:103A9300900389E0C3940F5022900377E0C0E07451
:103AA30002120AC7D0E0F07404120AC77401F0745A
:103AB30002120AC7AA82AB83121E27750A00780A6C
:103AC300120854780A120854901AC8E0F91244F7FD
:103AD300123DF112086385088285098312437AA394
:103AE300F07403900384F0EEFAEFFB125F53740556
:103AF300024D561251B49003822274EC1203707477
:103B0300ED1208F58A828B83A3123DC6EA240812BC
:103B13004DC8FEE9FF851882851983AC82AD838E7B
:103B2300828F83123DFA12532B120E8585188285DC
:103B33001983E0707A8E828F83E0C3940B40708583
:103B43000882850983A3A3A3A3A3A3A3A3E0640279
:103B5300705D900384E0FAE5082410F510E509345C
:103B630000F511E5082409F50CE509122BB07402E0
:103B73006A604174066A603C900346E07002A3E009
:103B83006007123E036401605474086A600574049C
:103B93006A701C7402120AC7E0F97407120AC7ACF0
:103BA30082AD83850C82850D8312532B120E8B7489
:103BB30013026D0C900346E07002A3E0701F750AB8
:103BC30000780A120854780A120854851082851165
:103BD30083123DBD124742123DF11208639003D197
:103BE3001276B69003D1126D04E508240DF50EE5A7
:103BF300091234E580318E828F83E0F8A3123DBD34
:103C0300E0687003A3E06970128E828F83A3A3E040
:103C1300FA850E82850F83E06A606D8E0A8F0BEE44
:103C2300126020EF1276B3EE7001EF70C97A187B41
:103C33000012165F8A128B13AE12AF13EE7001EFF0
:103C43007003023BB27C181278BE12604BEE240C58
:103C530012763E74FFF0E508240BF8E5091250B81C
:103C6300123DB312556FC4123DB3A3F09003D1E0DC
:103C73007002A3E070059003D1800AE50A12602068
:103C8300E50B1276411270D17401120AC7123DD9A5
:103C9300A3F07402120AC7123DD91250EF8E828F1D
:103CA30083A3A3123E0B123DD0125869240DFAEFE1
:103CB3003400FB7402120AC7E06401600E74071239
:103CC3000AC7AC82AD83121DEB80097C087D0079A5
:103CD300FF1215C97412120AC7E0C0E0EE241512D0
:103CE300763ED0E01250F8FC901AC8E0C39C400323
:103CF300023BB2126A79127641A3E05480F9E47070
:103D030001E9700990112AE07003023BB27D00EED5
:103D1300240CF8EF3400F9EE240BFAEF3400FB9097
:103D230003C1E06402701D8A828B83E0F50AC39CA1
:103D3300500D7405120AC7E0C39414401B801AE5A2
:103D43000A6C70157405120AC7E0C0E08882898383
:103D5300E0FCD0E0C39C50010D7404120AC7E0607C
:103D630020ED601D85088285098312697EECF0A32E
:103D7300ED1250F88A828B83F07405120AC7125031
:103D8300D37406120AC7E0600D74018E828F83A379
:103D9300A3A3A3A3A3F07404120AC7E07003023B16
:103DA300B274018E828F83A3A3A3A3A3F0023BB2B9
:103DB300540F8E828F83A3A3A322E0F9850C8285FF
:103DC3000D8322A3A3E0F508A3E0F50922F8A3E0FD
:103DD300F98E828F8322E08E828F83027ABE850CD6
:103DE30082850D83123DFA1250CD8A828B83124C49
:103DF3007F120F5D740222E0F98A828B83027ABC00
:103E030090034612481DE022F0850C82850D83E065
:103E13002274F412037074C91208F5900384E064E9
:103E2300087003023EC79003C1E06402703490231C
:103E3300FFE493900366F09023FFE493900364F010
:103E43009087597808120A8890038D7808120A79A6
:103E53009087597808120A889003917808120A7992
:103E63008062900395E0F824D9F582E43414F58355
:103E7300E0FA900366F0E824DAF582E43414F5837B
:103E8300E0FB900364F07508FF7509FFEA780812F8
:103E930009AAE508F4FCE509F4FD3395E0FE900377
:103EA3008D123FF37508FF7509FFEBC39A7808126B
:103EB30009AAE508F4FCE509F4FD3395E0FE900357
:103EC30091123FF3E4125D8F7904121E0390039560
:103ED300E07009741E120AC774018006741E120A68
:103EE300C7E4F0740F851882851983F0901A3A128B
:103EF30068FD7946121E037401120AC7E4F0901A92
:103F0300B0E0C0E07402120AC7D0E0F0900372E0A0
:103F1300C0E07403120AC7D0E0F07404120AC7E4C5
:103F2300F07405120AC7E4F07407120AC7E4F090AC
:103F33000395E0FAC3940F74065006120AC7EA8089
:103F430005120AC7740FF07C967D037408120AC722
:103F5300AA82AB83121DEB7C037D0079FF741012E0
:103F63000AC7AA82AB831215C99003CFE0C0E074DD
:103F730013120AC7D0E0125E8F120AC7125E7E12B6
:103F83000F75900389E0C0E0741C120AC7D0E0F0FB
:103F930090038AE0C0E0741D120AC7D0E0F09003DA
:103FA30077E0C0E0741A120AC7D0E0F090038212DF
:103FB3004DD87418120AC7125A3C7420120AC7E467
:103FC300F090038CE0C0E0741F120AC7D0E0F074D5
:103FD30034120AC7E4F07429120AC7E4123FFE74CC
:103FE30014120AC7AA82AB83121E217437024D56DC
:103FF300ECF0A3EDF0A3EEF0A3F022F07A757B03CF
:10400300795312400922121E037A787B03794B12EB
:104013001E0322C082C0838A828B83A3E06007E4ED
:10402300900384F0804A7408900384F0900395E031
:10403300701F900350E07002A3E0600B79009003BF
:1040430050125D73121FCD9003821250C97A0580FE
:104053001A7900120C939003751250C97A067B00EB
:10406300121DD39003781250C97A047B00121DD31A
:10407300024CED74F412037074EA1208F5EA240298
:10408300FEEB3400FF0A0AFB120B738A088B09EA62
:104093007001EB70030241218A828B83A3A3A3A344
:1040A300E0FA74016A600F74026A600A74036A605A
:1040B3000574046A7068EEFCEFFD85188285198328
:1040C30012640A124126120AC7125A3C740A120ACF
:1040D300C77401F07413120AC71268FC121E158903
:1040E3000AAC0A7D007A077B00121DD385088285FE
:1040F3000983A3A3A3A3A3E0C2E0F074018508820C
:10410300850983A3A3A3A3A3A3A3A3A3F0740285F5
:104113000882850983A3A3A3A3A3A3A3A3F074166F
:10412300024D561251B474082274F012037074F8DD
:104133001208F58A0C8B0D8C0A8D0B890E8518825B
:10414300851983AC82AD837583867582E874081202
:1041530007AFF50FAC0CAD0D851882851983AA82C4
:10416300AB83126D947003750F019003D18030AC53
:104173000CAD0DEE240DFAEF34001279E4601A85CC
:104183000882850983E0650E700F8E828F83E06558
:104193000A7004A3E0650B602FEE241612763E121C
:1041A3004ADA7001EF60211241D2E50F70C18E82AD
:1041B3008F83E0650A7004A3E0650B70DC850882D9
:1041C300850983E0650E70D1EEFAEFFB02761FEEF0
:1041D3002402F508EF3400F5092274F712037090F6
:1041E30003D1E0FAA3E0800CEA24161276B012168B
:1041F30065EEFAEFFBEA7001EB70ED9003D1E4F0AA
:10420300A3F0024C3774F41203708A088B09EA2472
:104213000BFEEB3400FFEA2413F582EB126A886489
:10422300037009EEFAEFFB120B73800CE06402706B
:10423300548E828F8312428BEA7001EB6047EA242B
:1042430006F8EB12294C850882850983A3E07007E1
:10425300E488828983802D64F16005E064E1701A4B
:1042630088828983E0640170118A828B831242926F
:10427300121FCDEEFAEFFB120B7F850A82850B83AB
:10428300E0600214F0024D59124C7F120B6D2212A2
:104293004C7F90035E12429C221242A022E0F8A3BC
:1042A300E0F58388822274F11203708A088B09EC8B
:1042B300FEEDFF890A8A828B83126D218A828B83AA
:1042C300124379F0EEF8EFF9A30EAF838A828B8362
:1042D300A3A3E0C454F0FA88828983E04A1243849A
:1042E30012437912437EE0333354FCFA8E828F8378
:1042F300E04A12437EA3E033333354F8FA8E828FBD
:1043030083E04AF008EFF9A30EAF838508828B831D
:10431300A3A3A3A3A3A3E0A2E0E492E01313548016
:10432300FA88828983E04AF0E5082407F50CEB124A
:10433300586412084C7C08125552120863126BA180
:10434300E508240FF50CE509122BB0780C12084C84
:104353007C03125552120863E50AC3940F4012E519
:10436300082412F582E50912764112437AA3A3A326
:10437300F07F07020581A3E0023DD4124384A3A387
:1043830022F08508828B83A3A32274F1120370EABF
:10439300FEEBFF890A8C088D098E828F83E08C8265
:1043A3008D83124459AE82AF83E0125909124463DC
:1043B300C4125909124450E054038C828D83124471
:1043C30061A2E2E492E08C828D83124460131313A2
:1043D300541F125909A3124460A2E7E492E08C82AD
:1043E3008D83A3A3A3A31244508E0C8F0D750E00CF
:1043F300780C12084C7C087D00E50824071244441D
:10440300120863126BA18E0C8F0D780C12084C7C72
:10441300037D00E508240F124444120863E50824D1
:1044230012F8E5093400F9E50AC3940F400A8E82B5
:104433008F83A3A3A3E08001E488828983F00243EE
:1044430074FAE5093400FB1215BD740322A3A31209
:1044530044590EAF8322F08E828F83A322A3A3A39A
:10446300A3F0026C5074F412037074F91208F5EAA5
:10447300FEEBFF900346E07002A3E06010123E03E0
:1044830064027009EEFAEFFB12103B806290038224
:10449300E06E7003A3E06F705674016960097A9649
:1044A3007B03126D9470487A007B0212498E70016F
:1044B300EB703C9003857808120A88851882851969
:1044C300837808120A7990038BE0C0E07404120A1F
:1044D300C7D0E0F07405120AC77401F07406120A1B
:1044E300C774021268FD120C3FE96098120C457400
:1044F30007024D569003821250CD90037822E0F9C3
:10450300024CED74F61203709003E2E0701F7C001E
:1045130079017A007B00120EC1EA7001EB600E8A0A
:10452300828B83E07002A3E06003120E13025D7CB2
:10453300C082C08312496E401079FF120EBBE9FAA4
:10454300902405E493C39A50047901800279000210
:104553004CED74EE1203708A088B09890D750E00F9
:10456300EA2408F50AEB127317850A82F583E0F94A
:10457300120EC78A108B11AE10AF11750C01EE70BD
:1045830001EF6003024617850882850983A3A3A36D
:10459300A3A3A31250C9850A82850B831256E9127D
:1045A300532B120EAF8A0A8B0BAE0AAF0BEE7001C0
:1045B300EF700302473A8E828F83A3A3A3A3E4F091
:1045C300A3F0E508240BFAE509125860C0E012765F
:1045D3003BD0E0F0120FD5EE240C1262AC750E0145
:1045E300EE2406F8EF12497DE0547FF0A3E054FC7B
:1045F300124823540460030246A9901AA9125632A2
:10460300740778081209AA8A828B83E04508F0A30D
:10461300E04509F0EE2406F8EF124DCAFCE9FD8CE3
:10462300828D8312532B74805AF50874035BF5094A
:1046330074077808120A6AE508F510EE2404127369
:1046430014EE2409F508EF3400F509E50D606074F4
:1046530002850882850983124464240D12532FE0D6
:10466300A2E2500F900370124DD8850A82850B8306
:10467300125A3CE5107003024707747F5AFA74FC20
:104683005BFB74FF2510F51074FF3400F5117407FC
:1046930078101209AAE5104AF8E5114BF98C828DBE
:1046A30083125A3C805EE04480F0A3E0024616E5A4
:1046B300107005750C00804CEA542060151215DB50
:1046C3008A10747F5510F8745F28850A82850B83DE
:1046D300801BEA5410600E1215DB8A10740F5510FC
:1046E300F8740F80E4850A82850B837401F0A3E4D8
:1046F300F074048508828509831249857001EB7083
:1047030003125D467401650E7030850A82850B8342
:10471300124742E0F9EEFAEFFB120EB5E9601BEE29
:10472300240C12763E124A167001EB6003121665D2
:10473300EEFAEFFB121665750C00A90C02584E1227
:1047430050CD02610774F612037074F71208F57EF8
:1047530000120EC7EA7001EB70030248128A828BC3
:1047630083A3A3A3A3A3A3A3A3A3E0640660030259
:1047730048128A828B83A3A3A3A3A3A3A3E0FF8AE4
:10478300828B83124817E0C0E07408120AC7D0E096
:104793001248231242A1125A39120EE574085FF926
:1047A300E47001E960678518828519831250C97A1C
:1047B300007B00120EA9EA7001EB70519003821284
:1047C3004DDC121E3F7C007D007A007B0080288E2A
:1047D300828F831260FCE064FF7004A3E064FF60D7
:1047E3002C9003821250C9121B57E9641A601E7C75
:1047F300007D00EEFAEFFB120EA98A088B09AE08C2
:10480300AF09EE7001EF70C77900121E457E01EE0D
:10481300F9025D7712481DA3A3221242A0027ABFB8
:104823001251C4E02274F7120370EA7001EB7005B1
:104833009003E380068A828B83A3A3124A16700136
:10484300EB60288A828B83A3A3A3A3A3A3A3E0542F
:1048530008F9E47001E960DDEC7001ED60111264A8
:10486300AA6C7003A3E06D70CC80047A007B000215
:104873004C3774F2120370EAFEEBFF890A8C088D41
:10488300097A0E7B0012165FEA7001EB603BE48A43
:10489300828B83A3A3A3A3A3A3A3A31248CFE50A55
:1048A300124C4C1260418A828B83A3A3A3A3E4F02E
:1048B3001248CFA3A3F01270CDEA240CF582EB12B9
:1048C3007A9DA31251BEF0A3F0022CDEA3124C502A
:1048D300027AC174F5120370EAFEEBFF890A8C08B1
:1048E3008D09EE7001EF60567401650A7014790149
:1048F300120EBBE9FA902412E493C39A500F791174
:1049030080667404650A703012496E40F18E828F9E
:1049130083A3A3A3A3A3A3A3A3A3E50A125870127B
:104923007D3CE4F0A3F09003E3E07002A3E0900386
:10493300E36024124DD8800A7402650A60CF79C1FE
:104943008026E824020808E912497D124A8470018E
:10495300E970EF8A828B83EEF0A3EF124985700131
:10496300EB7003125D467900027DA07904120EBB41
:10497300E9FA902406E493C39A22124DCAFAE90293
:1049830051C7F012498A227A207B009003D0E0F9C4
:10499300121719EA22C082C083E9FC79009003E36D
:1049A300801D8A828B83A3A3A3A3A3A3A3A3A3E0B2
:1049B3006C600574FF6C7001098A828B83A3A31258
:1049C3004A167001EB70DB024CED74F7120370EAC8
:1049D3007001EB70059003E380068A828B83A3A3A7
:1049E300124A167001EB60248A828B83A3A3A3A3CC
:1049F300A3A3A3A3A3E06970E1EC60148A828B8371
:104A0300E0240D126C4AA2E240D080047A007B00BD
:104A1300024C37124C7FEA22C082C0839003E380AA
:104A2300068A828B83A3A3124A167001EB60128A53
:104A3300828B83A3A3A3A3A3A3A3A3E06970E280B0
:104A4300047A007B00024CEDC082C0839003E380B4
:104A53000688828983A3A3124A847001E9601B88B4
:104A6300828983E0FCA3E0F5838C82E06A7003A370
:104A7300E06B70DDE8FAE9FB80047A007B00024C0E
:104A8300ED1251B4E82274F11203708A0A8B0B8C75
:104A93000C8D0D750800750900EA7001EB6031900B
:104AA30003E380068E828F83A3A3124ADA7001EF99
:104AB300601EAC0CAD0DEEFAEFFB850A82850B830D
:104AC300121FCDE9640170DCEEF8EFF9880889095B
:104AD300AA08AB09024374E0FEA3E0FFEE227900CB
:104AE30002054D74F71203709003E3124DD87C0056
:104AF3007D008007E8FCE9FD124DD8E87001E9600C
:104B03003AE82402F582E9127641EA687002EB6919
:104B130070E212532B9003E31276B6E86E7002E94B
:104B23006F70099003E3EAF0A3EB800EEAF8EBF968
:104B33008C828D83A3A3E8F0A3E9F0024C3774F7CA
:104B4300120370EAFEEBFFEE7001EF6016120EDF48
:104B5300124C56EA7001EB6003121665EEFAEFFB96
:104B6300121665024C3774F71203701264AAFCA381
:104B7300E0FD9003E3124DD87508007E0080338872
:104B8300828983A3A3A3A3A3A3A3A3A3E064057020
:104B9300180E88828983E0FFA3E0F5838F82E06C9F
:104BA3007003A3E06D7002050888828983A3A312B2
:104BB3004DD8E87001E970C7EA2404F8EB3400F932
:104BC300902402E493FCE508C39C500B902403E477
:104BD30093FCEEC39C400B888289837401F0A3E4A9
:104BE300800A900370124C3CECF0A3EDF074058A3C
:104BF300828B83A3A3A3A3A3A3124C49A3A3E0F093
:104C0300A3E04408124823FAA3E0FB8A828B83E0E3
:104C130064FF7004A3E064FF600E9003821250C926
:104C2300121E39E9641A70057901121E4580057454
:104C33001F1208637F010205811250CD80033400E7
:104C4300F98882898322A3A3A3124C50221251C450
:104C5300027AC18E828F83E0241C124C83FAA3E074
:104C6300FB1216658E828F83124C7F121665EE241B
:104C73000C124C7822F582EF3400F583E00227AD65
:104C8300125337E022C082C083EAFCEBFDEC7001D3
:104C9300ED70047905804CEC24FBF582ED34FFF5CF
:104CA30083E07002A3E07011EC24FFF8ED34FFF908
:104CB30088828983E064FF60051215E780D590033D
:104CC300D01250D3902409E493F97AE57B031216AA
:104CD30017E96401700B7A007B10125D4A7900803A
:104CE30002790480057402120863D083D08202051E
:104CF3004D74F4120370A2AFE492E0F508C2AF90D2
:104D030003E5124ADA7001EF603DEE24FBF582EF12
:104D130034FFF583E07002A3E07A007B109003D0A8
:104D23006005125D4D8005E0F9121623750A0075C2
:104D33000B00780A120850EEFCEFFD7AE57B0312B4
:104D430016117402120863E508A2E092AFEEFAEFBF
:104D5300FB80031208637F0402058174F71203705A
:104D630074E11208F5EA2413F582EB126A88C0E0B5
:104D73007411120AC7D0E01251AD7409120AC71296
:104D830051A6124DC2FCE9FD8C828D83124DD8745D
:104D93000B120AC71251A62414F582EB126A88C0BB
:104DA300E07412120AC7D0E0F0EA240EF582EB1287
:104DB3002CE68C828D83124DDC120DB9024C322409
:104DC30004124DC822F8EB3400F9E822EA240BF56B
:104DD30082EB1276631251B4221250CD851882856C
:104DE3001983AA82AB832274EA12037074FC12083B
:104DF300F5EAFEEBFF750B00750A007508FE7509F1
:104E0300FF120E97E9600579110250A9EE240F12E3
:104E130034E2EE2402122BADEE24151250C160468B
:104E2300901AC2E0C43354E0C0E0E0333354FCFAD8
:104E3300D0E04A851082851183123E0BFAA3E0FB72
:104E430079FF121F2FEA7001EB6018750B017508CB
:104E5300FF850E82850F83E04404F0A3E01250F82F
:104E6300D2E0F0750A40EE2412F514EF3400F51584
:104E7300850C82850D831262676008E48514828540
:104E83001583F0EE24131250C17003741EF0EE2448
:104E930011F8EF12624B70199011FEE0600D900350
:104EA3006CE0700D8E828F83E07006E488828983C4
:104EB300F0EE24140808081250B7700C9003611226
:104EC30050D3900361E004F0EE240BF512EF3400AD
:104ED300F51390036FE0A2E15052E50B701D850CB2
:104EE30082850D8312626760438E828F83E0600B3D
:104EF30085128285138312296E6031850E82850F98
:104F030083E054406019851082851183E064017049
:104F13000E850E82850F83E054FB126288800DEEAE
:104F2300FAEFFB120EFDE97003024E0A8E828F83A5
:104F3300E0640170108512828513831264AE6402EB
:104F4300700312627F850E82850F83E054406003F5
:104F5300025015E50B600302501590036FE0A2E1C8
:104F63004003025015EE2406F510EF3400F511E569
:104F73000AF50B780B120854AC10AD11850C828521
:104F83000D8312532B851482851583E0F9120DE3EB
:104F93007401120863E9600FE48514828515831296
:104FA30050EF4420126288851082851183E06034BB
:104FB300850C82850D831250C9EE2407FAEF340065
:104FC300FB120F218A088B09850C82850D83E0650E
:104FD300087004A3E065097008E4851082851183D5
:104FE300F012627FEE2404F510EF3400F5118E8287
:104FF3008F83E0640160061250DA120D7D1250DADD
:10500300120D17E9600C850E82850F83E044201290
:105013006288851882851983AC82AD83EEFAEFFB33
:10502300120F158A0A8B0B74FE6508700474FF65F2
:10503300097009850C82850D83123DC8EA7001EB66
:1050430060608E828F83E0C0E07401120AC7D0E0F3
:10505300F07402120AC71270D17401120AC7858252
:105063000C85830D780C120850850E82850F8312F0
:1050730006B7EE240E126A85F50C780C12085474E8
:1050830005120AC7E0F9AC08AD09120F0F74051237
:105093000863E9FE74106E700BAA0AAB0B12166557
:1050A30080027E10EEF974041208637F0E020581FC
:1050B300EE2405F8EF1250BC22124C41E0221258A4
:1050C30053E0221276601250CD22E0FCA3E0FD22D1
:1050D300E088828983F022A90A85108285118312D0
:1050E30050CD850C82850D83124C7F22F0850E8274
:1050F300850F83E022F0851082851183E022C08230
:10510300C08374DE1208F58A828B83A3A3A3A31240
:105113004DD8740E120AC7E8F0A3E91251AD740C0E
:10512300120AC71251A6240DF582EB126A88C0E059
:10513300741A120AC7D0E0F0124DCF7420120AC7B6
:105143001251A62415F582EB126A88C0E074081286
:105153000AC7D0E0F0EA241C124DD27412120AC717
:10516300125A3C74FF851882851983F07401120A60
:10517300C774FFF07402120AC774FFF090875112CC
:1051830006B37404120AC7AC82AD837407120AC74C
:10519300AA82AB83120C8774041208637900742209
:1051A300024CEAE8F0A3E9F0EA221251BE1251B42C
:1051B300221251B822E0F8A3E0F9221251C4A3A3AA
:1051C30022F08001FB8A828B832274EC12037074B9
:1051D300F01208F58A128B13ECFEEDFF890F74248D
:1051E300120AC7E0F50C7425120AC7123DC87427CA
:1051F300120AC7126D04750D107A1E7B0012165F1A
:105203007402120AC71262B37402120AC7E0700270
:10521300A3E0700302531B750E00EEFAEFFB120BB3
:105223006D8A828B83E5827002E583601CA3A3A34E
:10523300A3E0FA74016A600574036A700CE508540C
:1052430040700674044509F50974045509F9E470BE
:1052530001E96003750E01851882851983AA82AB63
:105263008379501253227402120AC7124817A312E9
:1052730062B37402120AC7E0240B12532F7402F0B4
:10528300120AC71248177402F0120AC7125D73128A
:1052930070D17402120AC71264A3E50FF0740212EC
:1052A3000AC7E0240C12532FE50CF07402120AC74C
:1052B300E0241C12532FE512F0A3E513F074081237
:1052C3000AC7126043740A120AC7E50CF0850A8202
:1052D300850B83C082C083740D120AC7AC82AD8371
:1052E300D083D08274031207AFA90E7402120AC7C7
:1052F300AA82AB83120E9DE964017011E50E60086A
:10530300A90C120EC7120EEB750D00800B7402125E
:105313000AC712532B121665A90D7410026D0C12D5
:105323001DFD851882851983124C7F221253332267
:1053330012533722F8A3E0024C4174E8120370EAD7
:10534300FEEBFF8C088D098E828F83A385821285E5
:1053530083137408F0EE2416F50CEF127645E06023
:10536300097410851282851383F0EE24171234E238
:10537300850E82F583E0600A851282851383E0241B
:1053830008F0EE2415126A8560098512828513835D
:10539300E004F0EE2407F514EF3400F515EE2406CF
:1053A300F516EF3400F517851682F583E060158551
:1053B3001482851583E0C3332402FA851282851390
:1053C30083E02AF0EE24111250B66005750A0E80B0
:1053D30003750A00851282851383E0C0E0EE240D75
:1053E30012763ED0E0FAE02A250A8C828D8312558C
:1053F3006F601390036DE0F9120AD1E9FA85088210
:10540300850983E02AF0850882850983E0FAC3943D
:105413007540097508007509000255497B00127033
:10542300337001EB7003025549EEFAEFFB120F1BC9
:10543300EA8508828509831262B4EE2402F81261B8
:1054430002125576F0EE24040808126102A3A31297
:105453005576A3A3F0EE241312555BF0EE24141239
:10546300555BA3F0751008850C82850D83E06010F1
:10547300EE24181250C6E5082408126CFA751010B1
:10548300850E82850F83E06016EE241A1250C685BE
:10549300100CE508250C126CFA74082510F510851C
:1054A3001682851783E0605F851482851583E0C0CB
:1054B300E085100CE508250CF582E509127641D04C
:1054C300E0125565E0C0E085100CE508250CF58277
:1054D300E509127641D0E012556512351512084CD4
:1054E300851482851583E0C333FCE433FD85100CFA
:1054F300E508250C1244441208638514828515833C
:10550300E0C3332510F510EE2415126A856010C030
:10551300E0E5082510F582E509127641D0E0F012A6
:10552300763B12351612084CEE240D126A85FC7D6B
:1055330000851282851383125AA6E50A28FAE439F4
:10554300125557120863AA08AB097F100205817D23
:1055530000EEFAEFFB02444A127660125586A3A3CB
:10556300A322F005108E828F83027ABDF088828990
:1055730083E02212557D12558622A3A3F0888289E7
:1055830083A322E0850882850983A3A3A32274F65B
:10559300120370EA2415F582EB126A8860047C0119
:1055A30080027C008A828B83E0FE90037212563263
:1055B300740278081209AAE5084EFEAF09EA24121C
:1055C30012562C740678081209AAE5084EF8E50964
:1055D3004FF9ECFDE8FCED49FDEA241112562C7459
:1055E3000978081209AAE5094DFDEA241612562C7A
:1055F300740B78081209AAE5094DFDEA241712561F
:105603002C740C78081209AAE5094DFD8A828B8354
:10561300A3A3A3A3A3A3125632740A78081209AA58
:10562300ECFAE5094DFB025D7CF582EB127663E053
:10563300F5087509002274F412037074FD1208F55D
:105643008A088B09ECFEEDFF7401120AC785820AF2
:1056530085830B780A1208507402120AC7AC82AD14
:1056630083EEFAEFFB120D597402120863E97065B9
:10567300851882851983126106F07401120AC7E046
:10568300F8A31256E9A3A3125A3C8508828509831D
:10569300A3A882A983851882851983E0602C1488C6
:1056A3008289831256E1E0C333F8E433F9740112BB
:1056B3000AC7E028F8A3E039F974FE28F58274FFDD
:1056C30039F583E0FAA3E0FB800FE488828983F055
:1056D300EEFAEF80F27AFE7BFF7403024D56F085FB
:1056E300188285198322E0F902610774EE120370B0
:1056F3008A088B09ECFEEDFFE98E828F83F0125A44
:10570300B2C0E0EE241112763ED0E0125A58C0E047
:10571300EE241212763ED0E0125A7C6006125A2B07
:10572300125A988E828F83A3A3A3A3A3A3A3A3E058
:105733006003125A8C1250B36003125A60EE24199C
:10574300F8EF3400F9E488828983F0EE241B1258C1
:1057530053E4F0A3F0EE2418FAEF1258607003023A
:1057630057EC850A82850B83E0FCE5082C125A6B03
:10577300FCE5082CF582E509126A88C0E0EE241ADC
:1057830012763ED0E0125A7688828983E0FC605319
:10579300902408E493C39C5005750F0C80028C0F72
:1057A300850A82850B83E0F8E50828F50CE50912E4
:1057B300586412084CE50FC333FCE433FD7A257BB0
:1057C3001912444A1208638510828511837425F0E7
:1057D300A37419F0E50FC333FA850A82850B83E0BE
:1057E3002A8005E48A828B83F0850A82850B83E015
:1057F300F50AF50CE508250CF8E5093400F9EE2463
:105803001DFAEF3400FBEAFCEBFD8C828D8312580A
:10581300692417FAEF3400FB8A088B098E828F8381
:10582300E0C3950A8A828B83125870A3A3E0601B9E
:105833008A828B83E024F2F0E8240EF8E9125A42BC
:10584300FA850882850983E0C39AF07F0A020581FD
:10585300F510EF3400F511851082F58322126E24C2
:1058630022340002351BE8F0A3E9F0EE221258744B
:1058730022F08E828F83027AC174F41203708A0835
:105883008B09EA125910F0EA1313543F125909A372
:10589300A3A3F0EAC41313125910A3A3F0EB1258F5
:1058A300F6F08A0A8B0B7409780A120A6AE50A125F
:1058B30058F6A3F08A0A8B0B740A780A120A6AE56F
:1058C3000A5401C0E0EC2418F582ED127641D0E0D1
:1058D300F08A0A8B0B740B780A120A6AE50A1259CA
:1058E30003F0740C7808120A6AE508125903A3F04E
:1058F300024D591258FA2254018C828D83027AC0C8
:105903001258FAA3A322540F8C828D832254038C42
:10591300828D83A3A322C082C083790090036C127B
:1059230060EBA3A3A3A3E0600FEC70268A828B83B2
:10593300A3A3E0701D09801AEC60178A828B83A3EE
:10594300A3A3A3A3A3A3A3A31259587003A3E06B18
:1059530070E3024CED124C7F900375E06A2274EE03
:105963001203708A088B09890CECFEEDFF125AB200
:10597300C0E0EE241112763ED0E0125A58C0E0EE99
:10598300241212763ED0E0125A7C6006125A2B1271
:105993005A988E828F83A3A3A3A3A3A3A3A3E06098
:1059A30003125A8C1250B36003125A60EEFAEFFBE3
:1059B300120F33E9F50D706B850A82850B83E0F5D1
:1059C3000EF510E5082510FAE5093400FBEE24175F
:1059D300F8EF3400F988088909EE241DF8EF124D19
:1059E300CAFCE9FD8E828F83A3A3A3A3A3A3E070C4
:1059F30012EAF8EBF98C828D83125A3CE50CC395BD
:105A03000E8019EA240EF8EB125A42FB850A8285AE
:105A13000B83E0FAE50CC39A24F2C39B85088285C5
:105A23000983F0A90D02584EE5082408F8E5093466
:105A330000F9EE24132212641CE8F0A3E9F02234E7
:105A430000F98C828D83E8F0A3E9F090036DE0F90F
:105A5300120AD1E92212623DA3A3A3E022850A829E
:105A6300850B83E0FAE5082AF582E509126A8F8837
:105A730082898312353304F02212445985820A85C0
:105A8300830B740812587480CF850A82850B8312A6
:105A93005AA6EE2415127660E8F0A3E912353324F2
:105AA30008F022E0F8E50828F8E5093400F9228A2D
:105AB300828B83124C7F120F2D850882850983A365
:105AC300A3125AF1E0F9EA8E828F83A3A3A3A3A3BF
:105AD300A3A3A3A3125AF6125AF1A3A3E0F9EAF877
:105AE300EE240B127660E8125AF6A3A3E022E0FA42
:105AF300025587F0A3E912624122C082C0837AF380
:105B03007B0379E2121DFD7AF37B03024CEDC08225
:105B1300C08390037512532B024CEDC082C0837473
